:10000000F5C000000C9453080C942808F6C70000B3
:10001000C9C700009CC700006FC7000042C70000AE
:1000200015C700000C94890A0C94150A0C94A109B8
:100030000EC100000CC100000AC1000008C1000090
:1000400006C1000004C1000002C1000000C10000A0
:10005000FEC00000FCC00000FAC00000ADC60000F9
:10006000F6C0000073C6000048C60000F0C00000E3
:10007000EEC00000ECC00000EAC00000E8C00000D4
:10008000E6C00000E4C00000E2C00000E0C00000E4
:10009000DEC00000DCC00000DAC000000C947E0866
:1000A000D6C00000D4C00000D2C00000D0C0000004
:1000B000CEC00000CCC00000CAC00000C8C0000014
:1000C000C6C00000C4C00000C2C00000C0C0000024
:1000D000BEC00000BCC00000BAC00000B8C0000034
:1000E000B6C0000000002100240027002A002D00D7
:1000F0003000330001010000040107010A01000083
:100100002200250028002B002E00310034000201BF
:100110000000050108010B01050505050705080894
:100120000808020202020A0A080804040404010181
:100130000101010101010303030303030303040796
:1001400007070C0C0C0C0C0C0C0C0202020206062D
:100150000606060606060B0B0B0B0B0B0B0B010220
:1001600010202008081020401020408002010201C9
:100170000804020101020408102040808040201081
:1001800008040201800402018040201008040201DA
:100190000804020101020408102040800102040842
:1001A0001020408000000A0B02090C0D0E08070306
:1001B000040100000000000000000000000000003A
:1001C000000000000000000000000000000000002F
:1001D00012111000000000000000000000000000EC
:1001E00000000000000000000000F70A11241FBEFC
:1001F000CFEFD1E2DEBFCDBF00E00CBF12E0A0E048
:10020000B2E0EAE6F2E200E00BBF02C007900D9216
:10021000A234B107D9F724E0A2E4B2E001C01D92F4
:10022000A734B207E1F710E0C6EFD0E000E006C067
:1002300021970109802FFE010E941211C53FD107AD
:1002400080E00807A9F70E94380B0C943311D8CE30
:10025000982F2091960381E0213208F043C08091CD
:1002600072038111FCCF8091950332E030937203C9
:10027000909371039FEF9093700310926F032093FC
:100280006E03A5E7B3E0EEE4F3E090E0291331C09C
:1002900010924D0390914D03880F892B80934D034D
:1002A00080914C03813049F510924C0380914D03AD
:1002B0008093BB008091BC0083FDF8CF85EC8093D8
:1002C000BC00809172038230E1F3809170038F3F14
:1002D000B1F0809170038032A1F08091700380337F
:1002E00091F084E0109274031092960310927303BD
:1002F00008953D9131939F5FC9CF85EEE0CF80E0B7
:10030000F1CF82E0EFCF83E0EDCF1F93CF93DF9368
:10031000162FC0E4D4E0A981BA81988121E020930E
:100320007303909395031092740310929603ED91CA
:10033000FC9111970190F081E02D682FCD01199566
:1003400089819A81DC01ED91FC910190F081E02D91
:10035000612F199581E0DF91CF911F9179CFAF92F5
:10036000BF92CF92DF92EF92FF920F931F93CF93A2
:10037000DF936C017B018B01040F151FEB015E0104
:10038000AE18BF08C017D10759F06991D601ED9199
:10039000FC910190F081E02DC6011995892B79F728
:1003A000C501DF91CF911F910F91FF90EF90DF90EA
:1003B000CF90BF90AF90089508950895FC01538D9C
:1003C000448D252F30E0842F90E0821B930B54172F
:1003D00010F0CF96089501970895FC01918D828DBC
:1003E000981761F0A28DAE0FBF2FB11D5D968C9155
:1003F000928D9F5F9F73928F90E008958FEF9FEF94
:100400000895FC01918D828D981731F0828DE80F4F
:10041000F11D858D90E008958FEF9FEF0895FC0109
:10042000918D228D892F90E0805C9F4F821B9109D6
:100430008F739927089587E993E0F1DF21E0892BF5
:1004400009F420E0822F0895FC01A48DA80FB92F94
:10045000B11DA35ABF4F2C91848D90E001968F73EC
:100460009927848FA689B7892C93A089B1898C910B
:10047000837080648C93938D848D981306C002885A
:10048000F389E02D80818F7D80830895EF92FF9224
:100490000F931F93CF93DF93EC0181E0888F9B8DA7
:1004A0008C8D98131AC0E889F989808185FF15C061
:1004B0009FB7F894EE89FF896083E889F989808184
:1004C0008370806480839FBF81E090E0DF91CF9153
:1004D0001F910F91FF90EF900895F62E0B8D10E075
:1004E0000F5F1F4F0F731127E02E8C8D8E110BC0E5
:1004F0000FB607FCFACFE889F989808185FFF5CF2F
:10050000CE01A2DFF2CFEB8DEC0FFD2FF11DE35AF0
:10051000FF4FF0829FB7F8940B8FEA89FB898081A7
:100520008062D0CFCF93DF93EC01888D8823B1F028
:10053000AA89BB89E889F9898C9185FD03C08081EE
:1005400086FD0CC00FB607FCF7CF8C9185FFF2CF6C
:10055000808185FFEDCFCE0177DFEACFDF91CF91AC
:10056000089580E090E0892B21F065DF81110E94E1
:10057000000080E090E0892B49F080E090E0892B3A
:1005800029F00E94000081110E94000080E090E0AC
:10059000892B49F080E090E0892B29F00E9400002F
:1005A00081110E94000080E090E0892B49F080E0FA
:1005B00090E0892B29F00E94000081110C9400002A
:1005C0000895282F30E0F901EC55FE4F9491F90180
:1005D000E25AFE4F4491285E3E4FF90124912223B6
:1005E00009F435C0992311F191509231F8F4E92FB3
:1005F000F0E08827E150FD4F8F4F0C94121130032B
:100600003403110328032C03160337033D0341036E
:1006100047034B034F035503590316035D0363035D
:100620006703809180008F7780938000E22FF0E055
:10063000EE0FFF1FE250FF4FA591B4918FB7F894D2
:10064000EC91611148C040954E234C938FBF0895A3
:10065000809180008F7DE8CF80918000877FE4CFFC
:1006600084B58F7784BDE2CF84B58F7DFBCF809139
:10067000B0008F778093B000D9CF8091B0008F7D8C
:10068000F9CF809190008F7780939000CFCF8091A9
:1006900090008F7DF9CF80919000877FF5CF80917A
:1006A000A0008F778093A000C1CF8091A0008F7DA4
:1006B000F9CF8091A000877FF5CF809120018F77BF
:1006C00080932001B3CF809120018F7DF9CF80915D
:1006D0002001877FF5CF4E2BB8CFCF93DF9390E0EB
:1006E000FC01E25AFE4F2491885E9E4FFC018491EA
:1006F0008823D1F090E0880F991FFC01EC51FF4F47
:10070000A591B491FC01E250FF4FC591D4916111C4
:100710000EC09FB7F8948C91E22FE0958E238C93B6
:100720002881E223E8839FBFDF91CF9108958FB79F
:10073000F894EC91E22BEC938FBFF6CF1F93CF93FD
:10074000DF93182FEB0161E0C8DF209731F460E000
:10075000812FDF91CF911F9134CFCF3FD10511F47D
:1007600061E0F6CFE12FF0E0EC55FE4FE491E1506F
:10077000E23108F0B3C0F0E08827EE53FC4F8F4F12
:100780000C941211D403DC03E103EB03F5036E04B4
:10079000FF0307040F04190423042D043C0446043A
:1007A0006E0450045A04640484B5806884BDC7BDD7
:1007B000DF91CF911F91089584B5806284BDC8BD3B
:1007C000F7CF80918000806880938000D09389006B
:1007D000C0938800EDCF809180008062809380007C
:1007E000D0938B00C0938A00E3CF80918000886013
:1007F00080938000D0938D00C0938C00D9CF8091DE
:10080000B00080688093B000C093B300D1CF8091D6
:10081000B00080628093B000C093B400C9CF8091D3
:100820009000806880939000D0939900C0939800C6
:10083000BFCF80919000806280939000D0939B0006
:10084000C0939A00B5CF809190008860809390000B
:10085000D0939D00C0939C00ABCF8091A000806896
:100860008093A0008091A0008F7B8093A000D09304
:10087000A900C093A8009CCF8091A00080628093C3
:10088000A000D093AB00C093AA0092CF8091A000AB
:1008900088608093A000D093AD00C093AC0088CF57
:1008A00080912001806880932001D0932901C0931A
:1008B00028017ECF80912001806280932001D09317
:1008C0002B01C0932A0174CF80912001886080930E
:1008D0002001D0932D01C0932C016ACFC038D105DF
:1008E0000CF03ECF34CF3FB7F894809186029091C0
:1008F0008702A0918802B091890226B5A89B05C005
:100900002F3F19F00196A11DB11D3FBFBA2FA92F8E
:10091000982F8827BC01CD01620F711D811D911D8B
:1009200042E0660F771F881F991F4A95D1F70895F7
:100930008F929F92AF92BF92CF92DF92EF92FF92EF
:100940004B015C01D0DF6B017C01CDDF6C197D09AF
:100950008E099F09683E734081059105B0F321E03F
:10096000821A9108A108B10888EEC80E83E0D81E4B
:10097000E11CF11C81149104A104B10431F7FF9032
:10098000EF90DF90CF90BF90AF909F908F900895A1
:100990000895DC01ED91FC910190F081E02D199416
:1009A000EF92FF920F931F93CF93DF937B018A0106
:1009B000C0E4D4E0A981BA81988121E02093730337
:1009C00090939503109274031092960394E0899F7C
:1009D000B00111246A5F7F4FED91FC911197019056
:1009E000F081E02DCD011995B70189819A81D1DF80
:1009F00070E060E089819A81CCDFB80189819A81B9
:100A0000C8DF612F70E089819A81C3DF81E0DF91C7
:100A1000CF911F910F91FF90EF901ACC85ED8093AD
:100A2000BC008091BC0084FDFCCF1092720308953D
:100A300020916202260F3327331F21323105ECF457
:100A400020917203FC0190E080E0243069F082E0A4
:100A50000895A09162022191AC014E5B5D4FA40FFD
:100A6000B52FB11D2C930196861798F380916202E1
:100A7000680F6093620280E0089581E00895089510
:100A8000E091AF028091AE02E81730F4F0E0E65753
:100A9000FD4F808190E008958FEF9FEF0895909132
:100AA000AF028091AE022FEF3FEF981748F4E92F85
:100AB000F0E0E657FD4F208130E09F5F9093AF025A
:100AC000C90108958091AE029091AF02891B990BE4
:100AD0000895CF92DF92EF92FF920F931F93CF93DF
:100AE000DF937C01CB018A0120917303222389F0DB
:100AF000EB016B01C40ED51ECC15DD0561F06991CB
:100B0000D701ED91FC910190F081E02DC70119957D
:100B1000F3CF642F8DDFC801DF91CF911F910F912B
:100B2000FF90EF90DF90CF900895CF93DF931F92C7
:100B3000CDB7DEB76983209173032223F9F02091AA
:100B40009603203258F021E030E0FC013383228309
:100B500090E080E00F90DF91CF9108958091740331
:100B6000E82FF0E0EB58FC4F998190838F5F8093E2
:100B700074038093960381E090E0ECCF61E0CE01B6
:100B8000019656DFF8CF90E080E0089580912A0327
:100B900090912B03A0912C03B0912D03039B0CC0CB
:100BA0000196A11DB11D80932A0390932B03A0935E
:100BB0002C03B0932D0308950197A109B109F3CF38
:100BC0008091260390912703A0912803B0912903D7
:100BD000029B0CC00196A11DB11D8093260390932A
:100BE0002703A0932803B093290308950197A1092F
:100BF000B109F3CF8091220390912303A0912403A4
:100C0000B0912503019B0CC00196A11DB11D8093DD
:100C1000220390932303A0932403B0932503089504
:100C20000197A109B109F3CF80911E0390911F0391
:100C3000A0912003B0912103009B0CC00196A11D3F
:100C4000B11D80931E0390931F03A0932003B093C4
:100C5000210308950197A109B109F3CFFC01019087
:100C60000020E9F73197AF01481B590BBC0187E918
:100C700093E075CB8F929F92AF92BF920F931F9389
:100C8000CF93DF93CDB7DEB7A1970FB6F894DEBF51
:100C90000FBECDBF19A2423008F44AE08E010F5DAD
:100CA0001F4F842E912CB12CA12CA50194010E94E0
:100CB000D410E62FB901CA01EA30ECF4E05DD801A6
:100CC000EE938D01232B242B252B79F790E080E0E8
:100CD000109711F0CD01C2DFA1960FB6F894DEBFD8
:100CE0000FBECDBFDF91CF911F910F91BF90AF90FD
:100CF0009F908F900895E95CE2CF1F920F920FB6FC
:100D00000F9211240BB60F922F933F934F935F9343
:100D10006F937F938F939F93AF93BF93EF93FF93C3
:100D200087E993E091DBFF91EF91BF91AF919F91A4
:100D30008F917F916F915F914F913F912F910F9084
:100D40000BBE0F900FBE0F901F9018951F920F9221
:100D50000FB60F9211240BB60F922F938F939F9380
:100D6000EF93FF93E091A703F091A8038081E091B6
:100D7000AD03F091AE0382FD1DC090818091B00360
:100D80008F5F8F732091B103821741F0E091B00320
:100D9000F0E0E956FC4F958F8093B003FF91EF91FF
:100DA0009F918F912F910F900BBE0F900FBE0F90C0
:100DB0001F9018958081F2CF1F920F920FB60F925D
:100DC00011242F933F938F939F93AF93BF93809161
:100DD000B6029091B702A091B802B091B9023091D9
:100DE000850223E0230F2D3758F50196A11DB11D73
:100DF000209385028093B6029093B702A093B80225
:100E0000B093B9028091860290918702A0918802E6
:100E1000B09189020196A11DB11D80938602909325
:100E20008702A0938802B0938902BF91AF919F91EE
:100E30008F913F912F910F900FBE0F901F9018959B
:100E400026E8230F0296A11DB11DD2CF1F920F924B
:100E50000FB60F9211240BB60F922F933F934F931F
:100E60005F936F937F938F939F93AF93BF93EF9312
:100E7000FF93E0910E02F0910F021995FF91EF910F
:100E8000BF91AF919F918F917F916F915F914F91A2
:100E90003F912F910F900BBE0F900FBE0F901F90A0
:100EA00018951F920F920FB60F9211240BB60F9246
:100EB0002F933F934F935F936F937F938F939F9362
:100EC000AF93BF93EF93FF93E0910C02F0910D026B
:100ED0001995FF91EF91BF91AF919F918F917F9164
:100EE0006F915F914F913F912F910F900BBE0F909B
:100EF0000FBE0F901F9018951F920F920FB60F9272
:100F000011240BB60F922F933F934F935F936F93E0
:100F10007F938F939F93AF93BF93EF93FF93E09152
:100F20000202F09103021995FF91EF91BF91AF91E9
:100F30009F918F917F916F915F914F913F912F91F1
:100F40000F900BBE0F900FBE0F901F9018951F9221
:100F50000F920FB60F9211240BB60F922F933F935F
:100F60004F935F936F937F938F939F93AF93BF93B1
:100F7000EF93FF93E0910002F09101021995FF9128
:100F8000EF91BF91AF919F918F917F916F915F9101
:100F90004F913F912F910F900BBE0F900FBE0F906E
:100FA0001F9018951F920F920FB60F9211240BB637
:100FB0000F922F933F934F935F936F937F938F93F2
:100FC0009F93AF93BF93EF93FF93E0910A02F09149
:100FD0000B021995FF91EF91BF91AF919F918F9166
:100FE0007F916F915F914F913F912F910F900BBE29
:100FF0000F900FBE0F901F9018951F920F920FB673
:101000000F9211240BB60F922F933F934F935F9340
:101010006F937F938F939F93AF93BF93EF93FF93C0
:10102000E0910802F09109021995FF91EF91BF91AB
:10103000AF919F918F917F916F915F914F913F9170
:101040002F910F900BBE0F900FBE0F901F90189511
:101050001F920F920FB60F9211240BB60F922F937F
:101060003F934F935F936F937F938F939F93AF9330
:10107000BF93EF93FF93E0910602F0910702199559
:10108000FF91EF91BF91AF919F918F917F916F9160
:101090005F914F913F912F910F900BBE0F900FBE1C
:1010A0000F901F9018951F920F920FB60F92112458
:1010B0000BB60F922F933F934F935F936F937F9352
:1010C0008F939F93AF93BF93EF93FF93E0910402AD
:1010D000F09105021995FF91EF91BF91AF919F910A
:1010E0008F917F916F915F914F913F912F910F90D1
:1010F0000BBE0F900FBE0F901F9018951F920F926E
:101100000FB60F9211240BB60F922F933F934F936C
:101110005F936F937F938F939F93AF93BF93EF935F
:10112000FF938091B900887F803609F44CC008F0A5
:101130003FC0883209F4A8C028F5803109F49CC06A
:10114000C8F4882309F4FAC0883009F495C0FF91E7
:10115000EF91BF91AF919F918F917F916F915F912F
:101160004F913F912F910F900BBE0F900FBE0F909C
:101170001F901895883109F487C0803241F7809319
:10118000700314C0803409F49CC040F48033B9F378
:101190008833E9F68093700385ECAFC0803509F49D
:1011A00084C0883509F495C0883489F637DCCFCF00
:1011B000883909F48CC038F5883729F050F488361E
:1011C00011F0803721F683E080937203109284023D
:1011D00057C0883809F47BC0803919F0803809F08D
:1011E000B6CF80918402803208F071C0E091840211
:1011F00081E08E0F809384028091BB00F0E0EC5977
:10120000FD4F80833DC0803B39F0E0F4803A09F423
:1012100079C0883A09F09BCF84E0809372031092E2
:10122000630210926202E091AC02F091AD02199556
:101230008091620281110FC081E08093620210925E
:10124000420209C0803C09F4A7CF883C09F4A4CF2E
:10125000883B09F07CCFE091630281E08E0F8093A0
:101260006302F0E0EE5BFD4F80818093BB009091C4
:1012700063028091620229C080914D038093BB007C
:1012800085EC8093BC0063CF90916F0380916E03D7
:10129000981758F5E0916F0381E08E0F80936F03EC
:1012A000F0E0E25BFC4F8081E9CFE0916F0381E0E9
:1012B0008E0F80936F038091BB00F0E0E25BFC4FE8
:1012C000808390916F0380916E039817C8F285E830
:1012D000D8CFE0916F0381E08E0F80936F038091F0
:1012E000BB00F0E0E25BFC4F8083809171038111D1
:1012F0005DCF81E080934C0384EA8093BC00109220
:10130000720325CF85EC8093BC001092720380910C
:101310008402803230F4E0918402F0E0EC59FD4F19
:1013200010826091840270E0E091AA02F091AB0219
:1013300084E692E019951092840209CF109270030E
:1013400035CF1F920F920FB60F9211242F933F9318
:101350004F935F936F938F939F93AF93BF936091DE
:1013600006018091B0029091B1029C012170332757
:1013700020953095462F417050E024233523232BB0
:1013800071F180913E0390913F03A0914003B09191
:101390004103789B20C00196A11DB11D80933E039F
:1013A00090933F03A0934003B093410380910601C3
:1013B00090E09093B1028093B002BF91AF919F9162
:1013C0008F916F915F914F913F912F910F900FBE31
:1013D0000F901F9018950197A109B109DFCF2091B7
:1013E00006018270992780959095227030E08223C3
:1013F0009323892BD9F28091420390914303A091CA
:101400004403B0914503799B0CC00196A11DB11D09
:101410008093420390934303A0934403B093450306
:10142000C5CF0197A109B109F3CF1F920F920FB653
:101430000F9211242F933F934F935F936F938F934A
:101440009F93AF93BF93609103018091B2029091FB
:10145000B3029C012170332720953095462F4170AF
:1014600050E024233523232B71F180913603909192
:101470003703A0913803B0913903329B20C0019605
:10148000A11DB11D8093360390933703A0933803B9
:10149000B09339038091030190E09093B30280935D
:1014A000B202BF91AF919F918F916F915F914F91D8
:1014B0003F912F910F900FBE0F901F90189501979D
:1014C000A109B109DFCF209103018270992780958E
:1014D0009095227030E082239323892BD9F280915A
:1014E0003A0390913B03A0913C03B0913D03339BA1
:1014F0000CC00196A11DB11D80933A0390933B034C
:10150000A0933C03B0933D03C5CF0197A109B10956
:10151000F3CF1F920F920FB60F9211242F933F9388
:101520004F935F938F939F93AF93BF9343B18091FA
:10153000B4029091B5029C0120713327209530951B
:10154000407150E024233523232B61F180912E0339
:1015500090912F03A0913003B0913103309B1EC0B6
:101560000196A11DB11D80932E0390932F03A0938C
:101570003003B093310383B190E09093B502809330
:10158000B402BF91AF919F918F915F914F913F9125
:101590002F910F900FBE0F901F9018950197A109E2
:1015A000B109E1CF23B1807299278095909520727F
:1015B00030E082239323892BF1F2809132039091C2
:1015C0003303A0913403B0913503319B0CC00196D5
:1015D000A11DB11D8093320390933303A093340374
:1015E000B0933503C8CF0197A109B109F3CFE7E95B
:1015F000F3E01382128288EE93E0A0E0B0E08483EF
:101600009583A683B7832CE132E03183208325ECD8
:1016100030E03587248724EC30E03787268720ECBC
:1016200030E0318B208B21EC30E0338B228B22ECAD
:1016300030E0358B248B26EC30E0378B268B118EF7
:10164000128E138E148EE4E3F4E0138212828483EC
:101650009583A683B7838EE292E091838083A0E492
:10166000B4E080E48C931296FC93EE931197089566
:10167000789484B5826084BD84B5816084BD85B56D
:10168000826085BD85B5816085BD80916E00816079
:1016900080936E001092810080918100826080931F
:1016A0008100809181008160809381008091800021
:1016B0008160809380008091B10084608093B1004C
:1016C0008091B00081608093B00080919100826031
:1016D000809391008091910081608093910080912E
:1016E00090008160809390008091A100826080933F
:1016F000A1008091A10081608093A1008091A00051
:1017000081608093A00080912101826080932101FB
:10171000809121018160809321018091200181606D
:101720008093200180917A00846080937A00809178
:101730007A00826080937A0080917A008160809341
:101740007A0080917A00806880937A001092C100BC
:101750008091680087608093680083E080936B00CD
:1017600096E090936C0080936D0011B817B810BA92
:101770009CE09BB91DB890E39EB985B980930501A3
:10178000809308019FE092B998B981BB789483B1A6
:10179000837090E09093B5028093B402809103012E
:1017A000867090E09093B3028093B202809106011C
:1017B000837090E09093B1028093B00284E08093B4
:1017C000CA0285E08093CB0287E08093CC0288E058
:1017D0008093CD0288E090E0909347038093460386
:1017E000C0914603D0914703CA30D105ACF48E01B5
:1017F000000F111F06541D4F61E0D8018C910E940B
:101800006D0361E0F80181810E946D032196D09300
:101810004703C0934603E4CF109247031092460358
:10182000C0914603D0914703C430D105A4F4FE0112
:10183000EE0FFF1FE05FFD4F108160E0812F0E94DF
:101840006D0361E0812F0E94E1022196D09347034E
:10185000C0934603E5CF84E196E09093090280931C
:10186000080280916900806380936900EA9A8AEF98
:1018700095E090930B0280930A0280916900806C3E
:1018800080936900EB9A80EE95E09093010280933B
:10189000000280916A00836080936A00EC9A86EC73
:1018A00095E0909303028093020280916A008C601D
:1018B00080936A00ED9A1092AF021092AE021092DD
:1018C0007403109296031092720381E08093710367
:1018D00010924C0361E084E10E94E10261E085E145
:1018E0000E94E1028091B9008E7F8093B9008091BF
:1018F000B9008D7F8093B90088E48093B80085E4B7
:101900008093BC008CED91E09093AD028093AC028B
:101910008DED91E09093AB028093AA0260E880E0A5
:101920000E9485016AE070E080E090E001D860915B
:1019300043047091440480914504909146046FD310
:1019400020E030E04AE75AE4D6D220E030E040E040
:101950005FE369D220E030E040E85FE363D26B01EF
:101960007C0120E030E040E450E4C1D287FDC5C1F5
:1019700020E030E04FE753E4C701B60102D4181667
:101980000CF4C1C1C701B6011ED3D62F809141040A
:10199000909142042091400431E0309373032093EE
:1019A00095031092740310929603DC01ED91FC9163
:1019B0000190F081E02D60E0199581E00E942801FE
:1019C00080914004909172039111FCCF91E090932B
:1019D0007203909371032FEF2093700310926F03A3
:1019E00010926E0390934D0390914D03880F892BB5
:1019F00080934D0380914C03813009F08BC110928C
:101A00004C0380914D038093BB008091BC0083FD0B
:101A1000F8CF85EC8093BC00809172038130E1F3B4
:101A200080916F0391E0811102C090916F03EEE409
:101A3000F3E0AAE8B2E080E089136EC11092AF0231
:101A40008093AE028091410490914204DC01ED91BB
:101A5000FC910284F385E02D1995C82F682F6F76CD
:101A6000606180E00E9485016D2F8EEF0E948501EC
:101A70006C2F80E00E94850165E070E080E090E0DE
:101A80000E9498046C2F606A80E00E94850180E4C7
:101A900098E7ADE7B1E08093430490934404A093AA
:101AA0004504B09346048CE08093B800E6EFF2E082
:101AB00088E19CEFAFEFBFEF81939193A193B19336
:101AC000885E9340A109B109883025ED92072FEF78
:101AD000A207B20789F78AE090E0909347038093CA
:101AE0004603E091A703F091A80382E08083E09190
:101AF000A303F091A4031082E091A503F091A60343
:101B00008FEC80831092AF03E091AB03F091AC03B4
:101B100086E08083E091A903F091AA03808180612F
:101B20008083E091A903F091AA038081886080837B
:101B3000E091A903F091AA03808180688083E091FD
:101B4000A903F091AA0380818F7D80838FB7F894D9
:101B50008090B6029090B702A090B802B090B902FF
:101B60008FBF8091480390914903A0914A03B0919F
:101B70004B03881A990AAA0ABB0A2FB7F8948091D6
:101B8000B6029091B702A091B802B091B9022FBFEE
:101B90008093480390934903A0934A03B0934B0367
:101BA00010924703109246038FEF881A980AA80AEA
:101BB000B80AC0914603D0914703CA30D1050CF052
:101BC000D6C0FE01EE0FFF1FEE0FFF1FCF018A50A0
:101BD0009D4F9F01225E3C4FDC014D905D906D90CA
:101BE0007C90D9014D915D916D917C91441A550A7B
:101BF000660A770AE253FD4F608171818281938189
:101C0000640D751D861D971D562F472F382F292FC0
:101C10006D32B1E07B078105910524F05CE241E083
:101C200030E020E0C52ED42EE32EF22E24EDC21695
:101C30002EEFD2062FEFE206F2063CF4A4EDCA2EF8
:101C4000AEEFDA2EEE24EA94FE2CC082D182E2823C
:101C5000F38224E130E040E050E0C8D2CA01B9018B
:101C6000A501940192D26B017C01A5E0B0E0A30133
:101C70009201E0D2DC01CB018C0D9D1DAE1DBF1D7C
:101C80008115E0E19E07A105B10524F08FEF9FE0EB
:101C9000A0E0B0E08130F0EF9F07FFEFAF07BF0794
:101CA00024F481E090EFAFEFBFEF9C017C0197FF40
:101CB00004C0EE24FF24E81AF90AC830D105D4F58F
:101CC0008C2F880FC1E0C80F121613064CF5A70120
:101CD00061E070E00E94D00440E050E170E060E01C
:101CE0008C2F0E94D0048091460390914703019667
:101CF00090934703809346035CCFC12CD12CD0E452
:101D0000ED2EFE2C3FCEC12CD12CCFE7EC2EC3E420
:101D1000FC2E38CE85EE7ECE21912D938F5F8CCE1A
:101D200040E050E170E060E00E94D004A70161E073
:101D300070E0D6CFCC0FDD1FC654DD4F888154E054
:101D4000F594E7945A95E1F7C981121613064CF4FD
:101D5000B7010E949E0370E060E08C2F0E949E03FA
:101D6000C2CF70E060E00E949E03B701F6CF1092F0
:101D700047031092460380914603909147038930B0
:101D800091056CF5880F991F880F991FFC01E25E81
:101D9000FC4FC080D180E280F3804AE0C701B601E9
:101DA000F7FE0DC06DE287E993E00E9446026627C8
:101DB0007727CB016C197D098E099F094AE00E94A3
:101DC0003A068CE392E00E942E06809146039091A1
:101DD000470301969093470380934603CCCFC0906E
:101DE0004203D0904303E0904403F09045034AE05F
:101DF000C701B601F7FE0DC06DE287E993E00E94CE
:101E0000460266277727CB016C197D098E099F0949
:101E10004AE00E943A068EE392E00E942E060E945B
:101E2000B10294CE5058BB27AA270ED070C161D101
:101E300030F066D120F031F49F3F11F41EF456C10A
:101E40000EF4E095E7FB4CC1E92F72D180F3BA178D
:101E5000620773078407950718F071F49EF58AC12D
:101E60000EF4E0950B2EBA2FA02D0B01B9019001B5
:101E70000C01CA01A0011124FF27591B99F0593FF9
:101E800050F4503E68F11A16F040A22F232F342F41
:101E90004427585FF3CF469537952795A795F0408F
:101EA0005395C9F77EF41F16BA0B620B730B840BA4
:101EB000BAF09150A1F0FF0FBB1F661F771F881F5C
:101EC000C2F70EC0BA0F621F731F841F48F48795B4
:101ED00077956795B795F7959E3F08F0B3CF9395A3
:101EE000880F08F09927EE0F979587950895D4D01D
:101EF00008F481E008950CD00AC102D140F0F9D075
:101F000030F021F45F3F19F0EBC0511134C1EEC045
:101F10000FD198F39923C9F35523B1F3951B550BB2
:101F2000BB27AA2762177307840738F09F5F5F4FAC
:101F3000220F331F441FAA1FA9F333D00E2E3AF0ED
:101F4000E0E830D091505040E695001CCAF729D007
:101F5000FE2F27D0660F771F881FBB1F2617370756
:101F60004807AB07B0E809F0BB0B802DBF01FF2786
:101F700093585F4F2AF09E3F510568F0B1C0FBC0F7
:101F80005F3FECF3983EDCF3869577956795B795C0
:101F9000F7959F5FC9F7880F911D9695879597F9DB
:101FA0000895E1E0660F771F881FBB1F6217730754
:101FB0008407BA0720F0621B730B840BBA0BEE1F69
:101FC00088F7E0950895BCD088F09F5790F0B92F1E
:101FD0009927B751A0F0D1F0660F771F881F991F7E
:101FE0001AF0BA95C9F712C0B13081F0C3D0B1E090
:101FF0000895C0C0672F782F8827B85F39F0B93FA0
:10200000CCF3869577956795B395D9F73EF490957F
:102010008095709561957F4F8F4F9F4F0895E894FD
:1020200009C097FB3EF490958095709561957F4F20
:102030008F4F9F4F9923A9F0F92F96E9BB279395CE
:10204000F695879577956795B795F111F8CFFAF4DE
:10205000BB0F11F460FF1BC06F5F7F4F8F4F9F4F0F
:1020600016C0882311F096E911C0772321F09EE86D
:10207000872F762F05C0662371F096E8862F70E0D3
:1020800060E02AF09A95660F771F881FDAF7880FAD
:102090009695879597F90895990F0008550FAA0B03
:1020A000E0E8FEEF16161706E807F907C0F012166B
:1020B0001306E407F50798F0621B730B840B950B6E
:1020C00039F40A2661F0232B242B252B21F40895C3
:1020D0000A2609F4A140A6958FEF811D811D089560
:1020E00097F99F6780E870E060E008959FEF80ECCB
:1020F000089500240A94161617061806090608956E
:1021000000240A9412161306140605060895092ED3
:102110000394000C11F4882352F0BB0F40F4BF2B42
:1021200011F460FF04C06F5F7F4F8F4F9F4F089582
:1021300057FD9058440F551F59F05F3F71F0479578
:10214000880F97FB991F61F09F3F79F0879508955D
:10215000121613061406551FF2CF4695F1DF08C07C
:10216000161617061806991FF1CF86957105610599
:1021700008940895E894BB2766277727CB0197F941
:1021800008958ADF08F48FEF0895DB018F939F9302
:1021900051D0BF91AF91A29F800D911DA39F900D33
:1021A000B29F900D11240895A1E21A2EAA1BBB1B09
:1021B000FD010DC0AA1FBB1FEE1FFF1FA217B30713
:1021C000E407F50720F0A21BB30BE40BF50B661F29
:1021D000771F881F991F1A9469F7609570958095ED
:1021E00090959B01AC01BD01CF010895052E97FB91
:1021F00016F400940FD057FD05D0D6DF07FC02D0AF
:1022000046F408C050954095309521953F4F4F4F6B
:102210005F4F089590958095709561957F4F8F4F92
:102220009F4F0895EE0FFF1F881F8BBF0790F691F9
:10223000E02D199409D0A59F900DB49F900DA49FF7
:10224000800D911D11240895A29FB001B39FC0017C
:10225000A39F700D811D1124911DB29F700D811DD2
:0A2260001124911D0895F894FFCF9A
:10226A00C804C804C804C804C804C804C804C80404
:10227A001300120002000300000000004602AF0132
:10228A00DE0192020F02ED01010200000000950535
:10229A006905C3053F0562054F05400520000D0A83
:0222AA00000032
:00000001FF
