:10000000F5C000005EC6000031C6000004C6000056
:10001000D7C50000AAC500007DC5000050C500007E
:1000200023C500000C943508DDC7000098C7000008
:100030000DC100000BC1000009C1000007C1000094
:1000400005C1000003C1000001C10000FFC00000A5
:10005000FDC00000FBC00000F9C00000BBC40000F0
:10006000F5C00000F3C00000F1C00000EFC00000C8
:10007000EDC00000EBC00000E9C00000E7C00000D8
:10008000E5C00000E3C00000E1C00000DFC00000E8
:10009000DDC00000DBC00000D9C000003DC600008C
:1000A000D5C00000D3C00000D1C00000CFC0000008
:1000B000CDC00000CBC00000C9C00000C7C0000018
:1000C000C5C00000C3C00000C1C00000BFC0000028
:1000D000BDC00000BBC00000B9C00000B7C0000038
:1000E000B5C0000000000A0B02090C0D0E08070342
:1000F00004010000000000000000000000000000FB
:1001000000000000000000000000000000000000EF
:1001100012111000000000000000000000000000AC
:100120000000000000000000000000002200250088
:1001300028002B002E0031003400020100000501D0
:1001400008010B0100002100240027002A002D00D7
:100150003000330001010000040107010A01050518
:100160000505070508080808020202020A0A08082D
:10017000040404040101010101010101030303035B
:1001800003030303040707070C0C0C0C0C0C0C0CEA
:100190000202020206060606060606060B0B0B0BFB
:1001A0000B0B0B0B01021020200808102040102020
:1001B000408002010201080402010102040810202B
:1001C0004080804020100804020180040201804029
:1001D0002010080402010804020101020408102092
:1001E00040800102040810204080750811241FBEC1
:1001F000CFEFD1E2DEBFCDBF00E00CBF12E0A0E048
:10020000B2E0ECE1FAE100E00BBF02C007900D9212
:10021000AA34B107D9F723E0AAE4B2E001C01D92E5
:10022000AE35B207E1F710E0C6EFD0E000E006C05F
:1002300021970109802FFE010E94F00CC53FD107D4
:1002400080E00807A9F76AD70C940C0DD9CE982F37
:1002500020914A0381E0213208F043C080912603B7
:100260008111FCCF8091490332E0309326039093B3
:1002700025039FEF909324031092230320932203DE
:10028000A9E2B3E0E2E0F3E090E0291331C010927C
:10029000010390910103880F892B809301038091C2
:1002A0000003813049F5109200038091010380938F
:1002B000BB008091BC0083FDF8CF85EC8093BC002F
:1002C000809126038230E1F3809124038F3FB1F0C7
:1002D000809124038032A1F080912403803391F037
:1002E00084E01092280310924A0310922703089585
:1002F0003D9131939F5FC9CF85EEE0CF80E0F1CF94
:1003000082E0EFCF83E0EDCF90E0FC01EC55FE4FB3
:100310002491825A9E4FFC018491882399F090E0A9
:10032000880F991FFC01EC5BFE4FA591B491FC0175
:10033000E65DFE4F859194918FB7F894EC91E22B96
:10034000EC938FBF08951F93CF93DF93162FC7E5CC
:10035000D3E0A981BA81988121E02093270390936B
:1003600049031092280310924A03ED91FC911197D2
:100370000190F081E02D682FCD01199589819A8136
:10038000DC01ED91FC910190F081E02D612F199538
:1003900081E0DF91CF911F915ACF08950895282FC2
:1003A00030E0F901EC51FF4F9491F901EC55FE4F0B
:1003B0004491225A3E4FF9012491222309F435C079
:1003C000992311F191509231F8F4E92FF0E0882748
:1003D000E351FE4F8F4F0C94F00C1E022202FF01DE
:1003E00016021A02040225022B022F0235023902DC
:1003F0003D024302470204024B0251025502809122
:1004000080008F7780938000E22FF0E0EE0FFF1FD7
:10041000E65DFE4FA591B4918FB7F894EC91611110
:1004200048C040954E234C938FBF08958091800023
:100430008F7DE8CF80918000877FE4CF84B58F7770
:1004400084BDE2CF84B58F7DFBCF8091B0008F77E4
:100450008093B000D9CF8091B0008F7DF9CF80918B
:1004600090008F7780939000CFCF809190008F7D08
:10047000F9CF80919000877FF5CF8091A0008F7792
:100480008093A000C1CF8091A0008F7DF9CF809193
:10049000A000877FF5CF809120018F778093200186
:1004A000B3CF809120018F7DF9CF80912001877F8C
:1004B000F5CF4E2BB8CF1F93CF93DF93182FEB01BF
:1004C00023DF209731F460E0812FDF91CF911F91DE
:1004D00066CFCF3FD10511F461E0F6CFE12FF0E018
:1004E000EC51FF4FE491E150E23108F0B3C0F0E08D
:1004F0008827E258FD4F8F4F0C94F00C9002980221
:100500009D02A702B1022A03BB02C302CB02D5029D
:10051000DF02E902F80202032A030C031603200398
:1005200084B5806884BDC7BDDF91CF911F910895C8
:1005300084B5806284BDC8BDF7CF8091800080689B
:1005400080938000D0938900C0938800EDCF809184
:100550008000806280938000D0938B00C0938A00DB
:10056000E3CF80918000886080938000D0938D00DD
:10057000C0938C00D9CF8091B00080688093B00088
:10058000C093B300D1CF8091B00080628093B0005F
:10059000C093B400C9CF8091900080688093900090
:1005A000D0939900C0939800BFCF80919000806253
:1005B00080939000D0939B00C0939A00B5CF809118
:1005C0009000886080939000D0939D00C0939C0021
:1005D000ABCF8091A00080688093A0008091A000A4
:1005E0008F7B8093A000D093A900C093A8009CCFDC
:1005F0008091A00080628093A000D093AB00C09354
:10060000AA0092CF8091A00088608093A000D09330
:10061000AD00C093AC0088CF8091200180688093AA
:100620002001D0932901C09328017ECF8091200121
:10063000806280932001D0932B01C0932A0174CF54
:1006400080912001886080932001D0932D01C09378
:100650002C016ACFC038D1050CF03ECF34CF3FB764
:10066000F8948091920290919302A0919402B0919B
:10067000950226B5A89B05C02F3F19F00196A11D34
:10068000B11D3FBFBA2FA92F982F8827BC01CD01DC
:10069000620F711D811D911D42E0660F771F881F3B
:1006A000991F4A95D1F708958F929F92AF92BF926A
:1006B000CF92DF92EF92FF924B015C01D0DF6B0192
:1006C0007C01CDDF6C197D098E099F09683E73405E
:1006D00081059105B0F321E0821A9108A108B108C3
:1006E00088EEC80E83E0D81EE11CF11C8114910431
:1006F000A104B10431F7FF90EF90DF90CF90BF904D
:10070000AF909F908F9008950895DC01ED91FC913A
:100710000190F081E02D1994EF92FF920F931F93B7
:10072000CF93DF937B018A01C7E5D3E0A981BA812A
:10073000988121E020932703909349031092280386
:1007400010924A0394E0899FB00111246A5F7F4FA1
:10075000ED91FC9111970190F081E02DCD0119955B
:10076000B70189819A81D1DF70E060E089819A8147
:10077000CCDFB80189819A81C8DF612F70E089815F
:100780009A81C3DF81E0DF91CF911F910F91FF909C
:10079000EF905DCD85ED8093BC008091BC0084FD21
:1007A000FCCF10922603089520916A02260F33276A
:1007B000331F21323105ECF420912603FC0190E037
:1007C00080E0243069F082E00895A0916A022191CE
:1007D000AC01465B5D4FA40FB52FB11D2C93019664
:1007E000861798F380916A02680F60936A0280E02E
:1007F000089581E008950895E091BB028091BA02C6
:10080000E81730F4F0E0EA56FD4F808190E008955B
:100810008FEF9FEF08959091BB028091BA022FEF66
:100820003FEF981748F4E92FF0E0EA56FD4F20819A
:1008300030E09F5F9093BB02C90108958091BA0296
:100840009091BB02891B990B0895CF92DF92EF9292
:10085000FF920F931F93CF93DF937C01CB018A010B
:1008600020912703222389F0EB016B01C40ED51ED2
:10087000CC15DD0561F06991D701ED91FC910190F6
:10088000F081E02DC7011995F3CF642F8DDFC801EA
:10089000DF91CF911F910F91FF90EF90DF90CF905C
:1008A0000895CF93DF931F92CDB7DEB76983209170
:1008B00027032223F9F020914A03203258F021E047
:1008C00030E0FC013383228390E080E00F90DF91E1
:1008D000CF91089580912803E82FF0E0E75DFC4F69
:1008E000998190838F5F8093280380934A0381E0EE
:1008F00090E0ECCF61E0CE01019656DFF8CF90E0BA
:1009000080E008958091E2029091E302A091E402D8
:10091000B091E502039B0CC00196A11DB11D80930F
:10092000E2029093E302A093E402B093E5020895FB
:100930000197A109B109F3CF8091DE029091DF0206
:10094000A091E002B091E102029B0CC00196A11DB2
:10095000B11D8093DE029093DF02A093E002B0937A
:10096000E10208950197A109B109F3CF8091DA025C
:100970009091DB02A091DC02B091DD02019B0CC0E2
:100980000196A11DB11D8093DA029093DB02A09322
:10099000DC02B093DD0208950197A109B109F3CFFC
:1009A0008091D6029091D702A091D802B091D9023D
:1009B000009B0CC00196A11DB11D8093D60290939F
:1009C000D702A093D802B093D90208950197A10944
:1009D000B109F3CF1F920F920FB60F9211242F93EC
:1009E0003F938F939F93AF93BF9380918E0290918B
:1009F0008F02A0919002B091910230918D0223E07C
:100A0000230F2D3758F50196A11DB11D20938D029E
:100A100080938E0290938F02A0939002B0939102E4
:100A20008091920290919302A0919402B0919502CC
:100A30000196A11DB11D8093920290939302A09301
:100A40009402B0939502BF91AF919F918F913F9186
:100A50002F910F900FBE0F901F90189526E8230F2F
:100A60000296A11DB11DD2CF1F920F920FB60F9209
:100A700011240BB60F922F933F934F935F936F9375
:100A80007F938F939F93AF93BF93EF93FF93E091E7
:100A90000E02F0910F021995FF91EF91BF91AF9166
:100AA0009F918F917F916F915F914F913F912F9186
:100AB0000F900BBE0F900FBE0F901F9018951F92B6
:100AC0000F920FB60F9211240BB60F922F933F93F4
:100AD0004F935F936F937F938F939F93AF93BF9346
:100AE000EF93FF93E0910C02F0910D021995FF91A5
:100AF000EF91BF91AF919F918F917F916F915F9196
:100B00004F913F912F910F900BBE0F900FBE0F9002
:100B10001F9018951F920F920FB60F9211240BB6CB
:100B20000F922F933F934F935F936F937F938F9386
:100B30009F93AF93BF93EF93FF93E0910202F091E5
:100B400003021995FF91EF91BF91AF919F918F9102
:100B50007F916F915F914F913F912F910F900BBEBD
:100B60000F900FBE0F901F9018951F920F920FB607
:100B70000F9211240BB60F922F933F934F935F93D5
:100B80006F937F938F939F93AF93BF93EF93FF9355
:100B9000E0910002F09101021995FF91EF91BF9150
:100BA000AF919F918F917F916F915F914F913F9105
:100BB0002F910F900BBE0F900FBE0F901F901895A6
:100BC0001F920F920FB60F9211240BB60F922F9314
:100BD0003F934F935F936F937F938F939F93AF93C5
:100BE000BF93EF93FF93E0910A02F0910B021995E6
:100BF000FF91EF91BF91AF919F918F917F916F91F5
:100C00005F914F913F912F910F900BBE0F900FBEB0
:100C10000F901F9018951F920F920FB60F921124EC
:100C20000BB60F922F933F934F935F936F937F93E6
:100C30008F939F93AF93BF93EF93FF93E09108023D
:100C4000F09109021995FF91EF91BF91AF919F919A
:100C50008F917F916F915F914F913F912F910F9065
:100C60000BBE0F900FBE0F901F9018951F920F9202
:100C70000FB60F9211240BB60F922F933F934F9301
:100C80005F936F937F938F939F93AF93BF93EF93F4
:100C9000FF93E0910602F09107021995FF91EF9101
:100CA000BF91AF919F918F917F916F915F914F9184
:100CB0003F912F910F900BBE0F900FBE0F901F9082
:100CC00018951F920F920FB60F9211240BB60F9228
:100CD0002F933F934F935F936F937F938F939F9344
:100CE000AF93BF93EF93FF93E0910402F09105025D
:100CF0001995FF91EF91BF91AF919F918F917F9146
:100D00006F915F914F913F912F910F900BBE0F907C
:100D10000FBE0F901F9018951F920F920FB60F9253
:100D200011240BB60F922F933F934F935F936F93C2
:100D30007F938F939F93AF93BF93EF93FF93809194
:100D4000B900887F803609F44CC008F03FC0883273
:100D500009F4A8C028F5803109F49CC0C8F48823A0
:100D600009F4FAC0883009F495C0FF91EF91BF9162
:100D7000AF919F918F917F916F915F914F913F9133
:100D80002F910F900BBE0F900FBE0F901F901895D4
:100D9000883109F487C0803241F78093240314C05E
:100DA000803409F49CC040F48033B9F38833E9F609
:100DB0008093240385ECAFC0803509F484C0883566
:100DC00009F495C0883489F6E5DCCFCF883909F479
:100DD0008CC038F5883729F050F4883611F0803708
:100DE00021F683E08093260310928C0257C0883846
:100DF00009F47BC0803919F0803809F0B6CF8091B2
:100E00008C02803208F071C0E0918C0281E08E0F7C
:100E100080938C028091BB00F0E0E459FD4F808309
:100E20003DC0803B39F0E0F4803A09F479C0883A5B
:100E300009F09BCF84E08093260310926B021092FE
:100E40006A02E091B802F091B902199580916A02A4
:100E500081110FC081E080936A0210924A0209C09A
:100E6000803C09F4A7CF883C09F4A4CF883B09F063
:100E70007CCFE0916B0281E08E0F80936B02F0E0FB
:100E8000E65BFD4F80818093BB0090916B02809167
:100E90006A0229C0809101038093BB0085EC809396
:100EA000BC0063CF9091230380912203981758F5DB
:100EB000E091230381E08E0F80932303F0E0EE5F47
:100EC000FC4F8081E9CFE091230381E08E0F809376
:100ED00023038091BB00F0E0EE5FFC4F8083909194
:100EE0002303809122039817C8F285E8D8CFE091B8
:100EF000230381E08E0F809323038091BB00F0E0F9
:100F0000EE5FFC4F80838091250381115DCF81E0EE
:100F10008093000384EA8093BC001092260325CFBF
:100F200085EC8093BC001092260380918C02803265
:100F300030F4E0918C02F0E0E459FD4F10826091B2
:100F40008C0270E0E091B602F091B7028CE692E07C
:100F5000199510928C0209CF1092240335CF1F925D
:100F60000F920FB60F9211242F938F939F93AF93ED
:100F7000BF93209106018091BC029091BD028095A3
:100F8000909580FF2CC020FF2AC08091F60290919E
:100F9000F702A091F802B091F9027C9B1CC0019667
:100FA000A11DB11D8093F6029093F702A093F80261
:100FB000B093F9028091060190E09093BD02809376
:100FC000BC02BF91AF919F918F912F910F900FBE57
:100FD0000F901F9018950197A109B109E3CF809157
:100FE0000601E8CF1F920F920FB60F9211242F9394
:100FF0008F939F93AF93BF93209103018091BE0283
:101000009091BF028095909580FF2CC020FF2AC050
:101010008091EE029091EF02A091F002B091F10266
:10102000329B1CC00196A11DB11D8093EE029093CE
:10103000EF02A093F002B093F1028091030190E0DF
:101040009093BF028093BE02BF91AF919F918F9109
:101050002F910F900FBE0F901F9018950197A10927
:10106000B109E3CF80910301E8CF1F920F920FB631
:101070000F9211242F938F939F93AF93BF9323B11C
:101080008091C0029091C1028095909580FF2BC005
:1010900020FF29C08091E6029091E702A091E8022A
:1010A000B091E902309B1BC00196A11DB11D809338
:1010B000E6029093E702A093E802B093E90283B1BD
:1010C00090E09093C1028093C002BF91AF919F9135
:1010D0008F912F910F900FBE0F901F901895019731
:1010E000A109B109E4CF83B1EACFEBE4F3E01382C5
:1010F000128288EE93E0A0E0B0E084839583A6831B
:10110000B7838CE392E091838083A7E5B3E080E42A
:101110008C931296FC93EE9311970895789484B56E
:10112000826084BD84B5816084BD85B5826085BDE3
:1011300085B5816085BD80916E00816080936E0071
:101140001092810080918100826080938100809163
:101150008100816080938100809180008160809314
:1011600080008091B10084608093B1008091B000D4
:1011700081608093B00080919100826080939100A3
:1011800080919100816080939100809190008160B6
:10119000809390008091A10082608093A100809153
:1011A000A10081608093A1008091A0008160809364
:1011B000A000809121018260809321018091210112
:1011C00081608093210180912001816080932001C2
:1011D00080917A00846080937A0080917A008260A6
:1011E00080937A0080917A00816080937A00809168
:1011F0007A00806880937A001092C1008091680024
:1012000087608093680083E080936B0096E0909302
:101210006C0080936D0011B817B810BA789483B140
:10122000837090E09093C1028093C002809103018B
:10123000867090E09093BF028093BE028091060179
:10124000837090E09093BD028093BC0284E0809311
:10125000D20285E08093D30287E08093D40288E0B5
:101260008093D50288E090E09093FF028093FE0285
:10127000C091FE02D091FF02CA30D1058CF48E01DC
:10128000000F111F0E531D4FD8018C913DD8F8014E
:1012900081813AD82196D093FF02C093FE02E8CF15
:1012A00080ED94E090930902809308028091690098
:1012B000806380936900EA9A86EB94E090930B0236
:1012C00080930A0280916900806C80936900EB9A98
:1012D0008CE994E0909301028093000280916A006F
:1012E000836080936A00EC9A82E894E09093030212
:1012F0008093020280916A008C6080936A00ED9A6C
:101300001092BB021092BA021092280310924A0364
:101310001092260381E0809325031092000361E080
:1013200084E13DD861E085E13AD88091B9008E7FB3
:101330008093B9008091B9008D7F8093B90088E4D3
:101340008093B80085E48093BC008DEC91E090938D
:10135000B9028093B8028EEC91E09093B70280932B
:10136000B60260E880E00E94A3016AE070E080E0DD
:1013700090E09AD960915A0370915B0380915C036D
:1013800090915D0364D220E030E04AE75AE4CBD18B
:1013900020E030E040E05FE35ED120E030E040E874
:1013A0005FE358D16B017C0120E030E040E450E481
:1013B000B6D187FDF2C020E030E04FE753E4C7012B
:1013C000B601F7D218160CF4EEC0C701B60113D25D
:1013D000D62F80915803909159032091570331E003
:1013E00030932703209349031092280310924A0355
:1013F000DC01ED91FC910190F081E02D60E0199508
:1014000081E00E942701809157039091260391115A
:10141000FCCF91E090932603909325032FEF209328
:1014200024031092230310922203909301039091BE
:101430000103880F892B8093010380910003813081
:1014400009F0B8C010920003809101038093BB00A3
:101450008091BC0083FDF8CF85EC8093BC00809127
:1014600026038130E1F38091230391E0811102C0D2
:1014700090912303A2E0B3E0E6E9F2E080E0891373
:101480009BC01092BB028093BA0280915803909146
:101490005903DC01ED91FC910284F385E02D19954F
:1014A000C82F682F6F76606180E00E94A3016D2FC6
:1014B0008EEF0E94A3016C2F80E00E94A30165E0E3
:1014C00070E080E090E0F0D86C2F606A80E00E94CD
:1014D000A30180E498E7ADE7B1E080935A039093CD
:1014E0005B03A0935C03B0935D038CE08093B80032
:1014F0007AE0E72EF12C00E010E01092FF0210924B
:10150000FE022091FE023091FF022A3031050CF0DC
:101510007DC0F901EE0FFF1FEE0FFF1FDF01A05F7F
:10152000BD4FEA52FD4F8D919C9140815181841BAA
:10153000950BFC01EE0FFF1F8E0F9F1FB7013DD2D1
:101540006E0F7F1F6C39BFEF7B070CF466C0EB0199
:101550006536710514F0C4E6D0E0283031050CF092
:101560003DC0822F880FDD24D394D80E161617069F
:101570003CF5AE0161E070E0CFD840E050E170E0B2
:1015800060E08D2DC9D88091FE029091FF020196F6
:101590009093FF028093FE02B4CFC12CD12CF0E4D3
:1015A000EF2EFE2C12CFC12CD12CEFE7EE2EE3E470
:1015B000FE2E0BCF85EE51CF2D9121938F5F5FCF04
:1015C000D22EDD0C40E050E170E060E08D2DA4D81B
:1015D000AE0161E070E081E08D0DD4CFF901EE0F36
:1015E000FF1FEE53FD4F8081D18016161706D4F4ED
:1015F000BE0124E0759567952A95E1F70E945B028C
:1016000070E060E08D2D0E945B02BDCF01151105D9
:1016100009F473CF0E94000070CFCCE9DFEF2830CF
:10162000310574F26901CC0CDD1CF601EE53FD4F5F
:1016300070E060E080810E945B02D7FD2F96BE01C2
:1016400084E0759567958A95E1F7F601EE53FD4FB5
:101650008181D9CF5058BB27AA270ED070C161D144
:1016600030F066D120F031F49F3F11F41EF456C1E2
:101670000EF4E095E7FB4CC1E92F72D180F3BA1765
:10168000620773078407950718F071F49EF58AC105
:101690000EF4E0950B2EBA2FA02D0B01B90190018D
:1016A0000C01CA01A0011124FF27591B99F0593FD1
:1016B00050F4503E68F11A16F040A22F232F342F19
:1016C0004427585FF3CF469537952795A795F04067
:1016D0005395C9F77EF41F16BA0B620B730B840B7C
:1016E000BAF09150A1F0FF0FBB1F661F771F881F34
:1016F000C2F70EC0BA0F621F731F841F48F487958C
:1017000077956795B795F7959E3F08F0B3CF93957A
:10171000880F08F09927EE0F979587950895D4D0F4
:1017200008F481E008950CD00AC102D140F0F9D04C
:1017300030F021F45F3F19F0EBC0511134C1EEC01D
:101740000FD198F39923C9F35523B1F3951B550B8A
:10175000BB27AA2762177307840738F09F5F5F4F84
:10176000220F331F441FAA1FA9F333D00E2E3AF0C5
:10177000E0E830D091505040E695001CCAF729D0DF
:10178000FE2F27D0660F771F881FBB1F261737072E
:101790004807AB07B0E809F0BB0B802DBF01FF275E
:1017A00093585F4F2AF09E3F510568F0B1C0FBC0CF
:1017B0005F3FECF3983EDCF3869577956795B79598
:1017C000F7959F5FC9F7880F911D9695879597F9B3
:1017D0000895E1E0660F771F881FBB1F621773072C
:1017E0008407BA0720F0621B730B840BBA0BEE1F41
:1017F00088F7E0950895BCD088F09F5790F0B92FF6
:101800009927B751A0F0D1F0660F771F881F991F55
:101810001AF0BA95C9F712C0B13081F0C3D0B1E067
:101820000895C0C0672F782F8827B85F39F0B93F77
:10183000CCF3869577956795B395D9F73EF4909557
:101840008095709561957F4F8F4F9F4F0895E894D5
:1018500009C097FB3EF490958095709561957F4FF8
:101860008F4F9F4F9923A9F0F92F96E9BB279395A6
:10187000F695879577956795B795F111F8CFFAF4B6
:10188000BB0F11F460FF1BC06F5F7F4F8F4F9F4FE7
:1018900016C0882311F096E911C0772321F09EE845
:1018A000872F762F05C0662371F096E8862F70E0AB
:1018B00060E02AF09A95660F771F881FDAF7880F85
:1018C0009695879597F90895990F0008550FAA0BDB
:1018D000E0E8FEEF16161706E807F907C0F0121643
:1018E0001306E407F50798F0621B730B840B950B46
:1018F00039F40A2661F0232B242B252B21F408959B
:101900000A2609F4A140A6958FEF811D811D089537
:1019100097F99F6780E870E060E008959FEF80ECA2
:10192000089500240A941616170618060906089545
:1019300000240A9412161306140605060895092EAB
:101940000394000C11F4882352F0BB0F40F4BF2B1A
:1019500011F460FF04C06F5F7F4F8F4F9F4F08955A
:1019600057FD9058440F551F59F05F3F71F0479550
:10197000880F97FB991F61F09F3F79F08795089535
:10198000121613061406551FF2CF4695F1DF08C054
:10199000161617061806991FF1CF86957105610571
:1019A00008940895E894BB2766277727CB0197F919
:1019B00008958ADF08F48FEF089597FB072E16F439
:1019C000009406D077FD08D013D007FC05D03EF474
:1019D000909581959F4F0895709561957F4F0895DB
:1019E000EE0FFF1F881F8BBF0790F691E02D199413
:1019F000AA1BBB1B51E107C0AA1FBB1FA617B70735
:101A000010F0A61BB70B881F991F5A95A9F7809550
:0C1A10009095BC01CD010895F894FFCF23
:101A1C008403840384038403840384038403840382
:101A2C0000000000000000000000000000000000AA
:101A3C00000000000000000000000000000000009A
:101A4C00000000000000000000000000510425040C
:0A1A5C007F04FB031E040B04FC03CF
:00000001FF
