:10000000F5C000000C9487080C945C080C9431082F
:10001000FDC70000D0C70000A3C7000076C70000DE
:1000200049C700000C94330B0C94BF0A0C944B0A84
:100030000EC100000CC100000AC100000C94D509DB
:1000400006C1000004C1000002C1000000C10000A0
:10005000FEC00000FCC00000FAC00000E1C60000C5
:10006000F6C00000A7C600007CC60000F0C000007B
:10007000EEC00000ECC00000EAC00000E8C00000D4
:10008000E6C00000E4C00000E2C00000E0C00000E4
:10009000DEC00000DCC00000DAC000000C94B20832
:1000A000D6C00000D4C00000D2C00000D0C0000004
:1000B000CEC00000CCC00000CAC00000C8C0000014
:1000C000C6C00000C4C00000C2C00000C0C0000024
:1000D000BEC00000BCC00000BAC00000B8C0000034
:1000E000B6C0000000002100240027002A002D00D7
:1000F0003000330001010000040107010A01000083
:100100002200250028002B002E00310034000201BF
:100110000000050108010B01050505050705080894
:100120000808020202020A0A080804040404010181
:100130000101010101010303030303030303040796
:1001400007070C0C0C0C0C0C0C0C0202020206062D
:100150000606060606060B0B0B0B0B0B0B0B010220
:1001600010202008081020401020408002010201C9
:100170000804020101020408102040808040201081
:1001800008040201800402018040201008040201DA
:100190000804020101020408102040800102040842
:1001A0001020408000000A0B02090C0D0E08070306
:1001B000040100000000000000000000000000003A
:1001C000000000000000000000000000000000002F
:1001D00012111000000000000000000000000000EC
:1001E00000000000000000000000A10B11241FBE51
:1001F000CFEFD1E2DEBFCDBF00E00CBF12E0A0E048
:10020000B2E0E6E2F4E200E00BBF02C007900D921C
:10021000AE33B107D9F724E0AEE3B2E001C01D92DE
:10022000A235B207E1F710E0C6EFD0E000E006C06B
:1002300021970109802FFE010E94CE11C53FD107F1
:1002400080E00807A9F70E94E20B0C941112D8CEA7
:10025000982F2091A10381E0213208F043C08091C2
:100260007D038111FCCF8091A00332E030937D03A8
:1002700090937C039FEF90937B0310927A032093DB
:100280007903A0E8B3E0E9E5F3E090E0291331C099
:100290001092580390915803880F892B809358032C
:1002A00080915703813049F510925703809158038C
:1002B0008093BB008091BC0083FDF8CF85EC8093D8
:1002C000BC0080917D038230E1F380917B038F3FFE
:1002D000B1F080917B038032A1F080917B03803369
:1002E00091F084E010927F031092A10310927E039C
:1002F00008953D9131939F5FC9CF85EEE0CF80E0B7
:10030000F1CF82E0EFCF83E0EDCF1F93CF93DF9368
:10031000162FCBE4D4E0A981BA81988121E0209303
:100320007E039093A00310927F031092A103ED919E
:10033000FC9111970190F081E02D682FCD01199566
:1003400089819A81DC01ED91FC910190F081E02D91
:10035000612F199581E0DF91CF911F9179CFAF92F5
:10036000BF92CF92DF92EF92FF920F931F93CF93A2
:10037000DF936C017B018B01040F151FEB015E0104
:10038000AE18BF08C017D10759F06991D601ED9199
:10039000FC910190F081E02DC6011995892B79F728
:1003A000C501DF91CF911F910F91FF90EF90DF90EA
:1003B000CF90BF90AF90089581E080933E02089562
:1003C00081E080933F02089508950895FC01538DC4
:1003D000448D252F30E0842F90E0821B930B54171F
:1003E00010F0CF96089501970895FC01918D828DAC
:1003F000981761F0A28DAE0FBF2FB11D5D968C9145
:10040000928D9F5F9F73928F90E008958FEF9FEF83
:100410000895FC01918D828D981731F0828DE80F3F
:10042000F11D858D90E008958FEF9FEF0895FC01F9
:10043000918D228D892F90E0805C9F4F821B9109C6
:100440008F739927089582EA93E0F1DF21E0892BE9
:1004500009F420E0822F0895FC01A48DA80FB92F84
:10046000B11DA35ABF4F2C91848D90E001968F73DC
:100470009927848FA689B7892C93A089B1898C91FB
:10048000837080648C93938D848D981306C002884A
:10049000F389E02D80818F7D80830895EF92FF9214
:1004A0000F931F93CF93DF93EC0181E0888F9B8D97
:1004B0008C8D98131AC0E889F989808185FF15C051
:1004C0009FB7F894EE89FF896083E889F989808174
:1004D0008370806480839FBF81E090E0DF91CF9143
:1004E0001F910F91FF90EF900895F62E0B8D10E065
:1004F0000F5F1F4F0F731127E02E8C8D8E110BC0D5
:100500000FB607FCFACFE889F989808185FFF5CF1E
:10051000CE01A2DFF2CFEB8DEC0FFD2FF11DE35AE0
:10052000FF4FF0829FB7F8940B8FEA89FB89808197
:100530008062D0CFCF93DF93EC01888D8823B1F018
:10054000AA89BB89E889F9898C9185FD03C08081DE
:1005500086FD0CC00FB607FCF7CF8C9185FFF2CF5C
:10056000808185FFEDCFCE0177DFEACFDF91CF919C
:10057000089580E090E0892B21F065DF81110E94D1
:10058000000080E090E0892B49F080E090E0892B2A
:1005900029F00E94000081110E94000080E090E09C
:1005A000892B49F080E090E0892B29F00E9400001F
:1005B00081110E94000080E090E0892B49F080E0EA
:1005C00090E0892B29F00E94000081110C9400001A
:1005D0000895282F30E0F901EC55FE4F9491F90170
:1005E000E25AFE4F4491285E3E4FF90124912223A6
:1005F00009F435C0992311F191509231F8F4E92FA3
:10060000F0E08827E95FFC4F8F4F0C94CE11380340
:100610003C031903300334031E033F03450349031E
:100620004F03530357035D0361031E0365036B030D
:100630006F03809180008F7780938000E22FF0E03D
:10064000EE0FFF1FE250FF4FA591B4918FB7F894C2
:10065000EC91611148C040954E234C938FBF089593
:10066000809180008F7DE8CF80918000877FE4CFEC
:1006700084B58F7784BDE2CF84B58F7DFBCF809129
:10068000B0008F778093B000D9CF8091B0008F7D7C
:10069000F9CF809190008F7780939000CFCF809199
:1006A00090008F7DF9CF80919000877FF5CF80916A
:1006B000A0008F778093A000C1CF8091A0008F7D94
:1006C000F9CF8091A000877FF5CF809120018F77AF
:1006D00080932001B3CF809120018F7DF9CF80914D
:1006E0002001877FF5CF4E2BB8CFCF93DF9390E0DB
:1006F000FC01E25AFE4F2491885E9E4FFC018491DA
:100700008823D1F090E0880F991FFC01EC51FF4F36
:10071000A591B491FC01E250FF4FC591D4916111B4
:100720000EC09FB7F8948C91E22FE0958E238C93A6
:100730002881E223E8839FBFDF91CF9108958FB78F
:10074000F894EC91E22BEC938FBFF6CF1F93CF93ED
:10075000DF93182FEB0161E0C8DF209731F460E0F0
:10076000812FDF91CF911F9134CFCF3FD10511F46D
:1007700061E0F6CFE12FF0E0EC55FE4FE491E1505F
:10078000E23108F0B3C0F0E08827E653FC4F8F4F0A
:100790000C94CE11DC03E403E903F303FD037604B8
:1007A00007040F04170421042B04350444044E04E9
:1007B0007604580462046C0484B5806884BDC7BDA7
:1007C000DF91CF911F91089584B5806284BDC8BD2B
:1007D000F7CF80918000806880938000D09389005B
:1007E000C0938800EDCF809180008062809380006C
:1007F000D0938B00C0938A00E3CF80918000886003
:1008000080938000D0938D00C0938C00D9CF8091CD
:10081000B00080688093B000C093B300D1CF8091C6
:10082000B00080628093B000C093B400C9CF8091C3
:100830009000806880939000D0939900C0939800B6
:10084000BFCF80919000806280939000D0939B00F6
:10085000C0939A00B5CF80919000886080939000FB
:10086000D0939D00C0939C00ABCF8091A000806886
:100870008093A0008091A0008F7B8093A000D093F4
:10088000A900C093A8009CCF8091A00080628093B3
:10089000A000D093AB00C093AA0092CF8091A0009B
:1008A00088608093A000D093AD00C093AC0088CF47
:1008B00080912001806880932001D0932901C0930A
:1008C00028017ECF80912001806280932001D09307
:1008D0002B01C0932A0174CF8091200188608093FE
:1008E0002001D0932D01C0932C016ACFC038D105CF
:1008F0000CF03ECF34CF3FB7F894809184029091B2
:100900008502A0918602B091870226B5A89B05C0FA
:100910002F3F19F00196A11DB11D3FBFBA2FA92F7E
:10092000982F8827BC01CD01620F711D811D911D7B
:1009300042E0660F771F881F991F4A95D1F70895E7
:100940008F929F92AF92BF92CF92DF92EF92FF92DF
:100950004B015C01D0DF6B017C01CDDF6C197D099F
:100960008E099F09683E734081059105B0F321E02F
:10097000821A9108A108B10888EEC80E83E0D81E3B
:10098000E11CF11C81149104A104B10431F7FF9022
:10099000EF90DF90CF90BF90AF909F908F90089591
:1009A0000895DC01ED91FC910190F081E02D199406
:1009B000EF92FF920F931F93CF93DF937B018A01F6
:1009C000CBE4D4E0A981BA81988121E020937E0311
:1009D0009093A00310927F031092A10394E0899F4B
:1009E000B00111246A5F7F4FED91FC911197019046
:1009F000F081E02DCD011995B70189819A81D1DF70
:100A000070E060E089819A81CCDFB80189819A81A8
:100A1000C8DF612F70E089819A81C3DF81E0DF91B7
:100A2000CF911F910F91FF90EF9012CC85ED8093A5
:100A3000BC008091BC0084FDFCCF10927D03089522
:100A400020916002260F3327331F21323105ECF449
:100A500020917D03FC0190E080E0243069F082E089
:100A60000895A09160022191AC01405C5D4FA40FFC
:100A7000B52FB11D2C930196861798F380916002D3
:100A8000680F6093600280E0089581E00895089502
:100A9000E091AD028091AC02E81730F4F0E0E85745
:100AA000FD4F808190E008958FEF9FEF0895909122
:100AB000AD028091AC022FEF3FEF981748F4E92F79
:100AC000F0E0E857FD4F208130E09F5F9093AD024A
:100AD000C90108958091AC029091AD02891B990BD8
:100AE0000895CF92DF92EF92FF920F931F93CF93CF
:100AF000DF937C01CB018A0120917E03222389F0C0
:100B0000EB016B01C40ED51ECC15DD0561F06991BA
:100B1000D701ED91FC910190F081E02DC70119956D
:100B2000F3CF642F8DDFC801DF91CF911F910F911B
:100B3000FF90EF90DF90CF900895CF93DF931F92B7
:100B4000CDB7DEB7698320917E032223F9F020918F
:100B5000A103203258F021E030E0FC0133832283EE
:100B600090E080E00F90DF91CF91089580917F0316
:100B7000E82FF0E0E058FC4F998190838F5F8093DD
:100B80007F038093A10381E090E0ECCF61E0CE0190
:100B9000019656DFF8CF90E080E008958091000242
:100BA000882309F461C088E39FEFAFEFBFEF809324
:100BB000290390932A03A0932B03B0932C038093D3
:100BC0002D0390932E03A0932F03B09330038093B3
:100BD000310390933203A0933303B0933403809393
:100BE000350390933603A0933703B0933803809373
:100BF000390390933A03A0933B03B0933C0388ECF2
:100C000090E0A0E0B0E080933D0390933E03A0937A
:100C10003F03B09340038093410390934203A0931A
:100C20004303B09344038093450390934603A093FA
:100C30004703B09348038093490390934A03A093DA
:100C40004B03B0934C0380934D0390934E03A093BA
:100C50004F03B09350038AE090E090935203809347
:100C60005103109200020895E9E2F3E083E0E135D8
:100C7000F80729F01192119211921192F7CF8AE0A0
:100C800090E0909352038093510381E0809300029F
:100C9000089580910D0390910E03A0910F03B091E0
:100CA0001003039B0CC00197A109B10980930D03A8
:100CB00090930E03A0930F03B09310030895019631
:100CC000A11DB11DF3CF8091090390910A03A0915A
:100CD0000B03B0910C03029B0CC00197A109B10951
:100CE0008093090390930A03A0930B03B0930C0322
:100CF00008950196A11DB11DF3CF80910503909138
:100D00000603A0910703B0910803019B0CC0019753
:100D1000A109B1098093050390930603A0930703EB
:100D2000B093080308950196A11DB11DF3CF8091E2
:100D3000010390910203A0910303B0910403009B6F
:100D40000CC00197A109B10980930103909302039C
:100D5000A0930303B093040308950196A11DB11D50
:100D6000F3CF1F920F920FB60F9211240BB60F9272
:100D70002F933F934F935F936F937F938F939F93A3
:100D8000AF93BF93EF93FF9382EA93E065DBFF910C
:100D9000EF91BF91AF919F918F917F916F915F91F3
:100DA0004F913F912F910F900BBE0F900FBE0F9060
:100DB0001F9018951F920F920FB60F9211240BB629
:100DC0000F922F938F939F93EF93FF93E091B20332
:100DD000F091B3038081E091B803F091B90382FDF3
:100DE0001DC090818091BB038F5F8F732091BC03E6
:100DF000821741F0E091BB03F0E0EE55FC4F958F78
:100E00008093BB03FF91EF919F918F912F910F9052
:100E10000BBE0F900FBE0F901F9018958081F2CFE0
:100E20001F920F920FB60F9211242F933F938F931F
:100E30009F93AF93BF938091C1029091C202A09102
:100E4000C302B091C4023091830223E0230F2D37F7
:100E500058F50196A11DB11D209383028093C10214
:100E60009093C202A093C302B093C4028091840203
:100E700090918502A0918602B09187020196A11DF2
:100E8000B11D8093840290938502A0938602B09353
:100E90008702BF91AF919F918F913F912F910F90BA
:100EA0000FBE0F901F90189526E8230F0296A11DE4
:100EB000B11DD2CF1F920F920FB60F9211240BB615
:100EC0000F922F933F934F935F936F937F938F93E3
:100ED0009F93AF93BF93EF93FF93E0910F02F09135
:100EE00010021995FF91EF91BF91AF919F918F9152
:100EF0007F916F915F914F913F912F910F900BBE1A
:100F00000F900FBE0F901F9018951F920F920FB663
:100F10000F9211240BB60F922F933F934F935F9331
:100F20006F937F938F939F93AF93BF93EF93FF93B1
:100F3000E0910D02F0910E021995FF91EF91BF9192
:100F4000AF919F918F917F916F915F914F913F9161
:100F50002F910F900BBE0F900FBE0F901F90189502
:100F60001F920F920FB60F9211240BB60F922F9370
:100F70003F934F935F936F937F938F939F93AF9321
:100F8000BF93EF93FF93E0910302F0910402199550
:100F9000FF91EF91BF91AF919F918F917F916F9151
:100FA0005F914F913F912F910F900BBE0F900FBE0D
:100FB0000F901F9018951F920F920FB60F92112449
:100FC0000BB60F922F933F934F935F936F937F9343
:100FD0008F939F93AF93BF93EF93FF93E0910102A1
:100FE000F09102021995FF91EF91BF91AF919F91FE
:100FF0008F917F916F915F914F913F912F910F90C2
:101000000BBE0F900FBE0F901F9018951F920F925E
:101010000FB60F9211240BB60F922F933F934F935D
:101020005F936F937F938F939F93AF93BF93EF9350
:10103000FF93E0910B02F0910C021995FF91EF9153
:10104000BF91AF919F918F917F916F915F914F91E0
:101050003F912F910F900BBE0F900FBE0F901F90DE
:1010600018951F920F920FB60F9211240BB60F9284
:101070002F933F934F935F936F937F938F939F93A0
:10108000AF93BF93EF93FF93E0910902F0910A02AF
:101090001995FF91EF91BF91AF919F918F917F91A2
:1010A0006F915F914F913F912F910F900BBE0F90D9
:1010B0000FBE0F901F9018951F920F920FB60F92B0
:1010C00011240BB60F922F933F934F935F936F931F
:1010D0007F938F939F93AF93BF93EF93FF93E09191
:1010E0000702F09108021995FF91EF91BF91AF911E
:1010F0009F918F917F916F915F914F913F912F9130
:101100000F900BBE0F900FBE0F901F9018951F925F
:101110000F920FB60F9211240BB60F922F933F939D
:101120004F935F936F937F938F939F93AF93BF93EF
:10113000EF93FF93E0910502F09106021995FF915C
:10114000EF91BF91AF919F918F917F916F915F913F
:101150004F913F912F910F900BBE0F900FBE0F90AC
:101160001F9018951F920F920FB60F9211240BB675
:101170000F922F933F934F935F936F937F938F9330
:101180009F93AF93BF93EF93FF938091B900887FB4
:10119000803609F44CC008F03FC0883209F4A8C07A
:1011A00028F5803109F49CC0C8F4882309F4FAC0FA
:1011B000883009F495C0FF91EF91BF91AF919F9155
:1011C0008F917F916F915F914F913F912F910F90F0
:1011D0000BBE0F900FBE0F901F901895883109F429
:1011E00087C0803241F780937B0314C0803409F4B8
:1011F0009CC040F48033B9F38833E9F680937B03D5
:1012000085ECAFC0803509F484C0883509F495C0F9
:10121000883489F60BDCCFCF883909F48CC038F5D7
:10122000883729F050F4883611F0803721F683E0B2
:1012300080937D031092820257C0883809F47BC0E6
:10124000803919F0803809F0B6CF8091820280325F
:1012500008F071C0E091820281E08E0F80938202DB
:101260008091BB00F0E0EE59FD4F80833DC0803B94
:1012700039F0E0F4803A09F479C0883A09F09BCF5C
:1012800084E080937D031092610210926002E091ED
:10129000AA02F091AB0219958091600281110FC0F2
:1012A00081E0809360021092400209C0803C09F402
:1012B000A7CF883C09F4A4CF883B09F07CCFE0910C
:1012C000610281E08E0F80936102F0E0E05CFD4FEF
:1012D00080818093BB00909161028091600229C05F
:1012E000809158038093BB0085EC8093BC0063CF52
:1012F00090917A0380917903981758F5E0917A03D9
:1013000081E08E0F80937A03F0E0E75AFC4F8081F2
:10131000E9CFE0917A0381E08E0F80937A03809188
:10132000BB00F0E0E75AFC4F808390917A038091F4
:1013300079039817C8F285E8D8CFE0917A0381E065
:101340008E0F80937A038091BB00F0E0E75AFC4F48
:10135000808380917C0381115DCF81E0809357036E
:1013600084EA8093BC0010927D0325CF85EC8093A6
:10137000BC0010927D0380918202803230F4E091B3
:101380008202F0E0EE59FD4F10826091820270E01F
:10139000E091A802F091A90282E692E019951092DC
:1013A000820209CF10927B0335CF1F920F920FB6A6
:1013B0000F9211240BB60F922F933F934F935F938D
:1013C0006F937F938F939F93AF93BF93EF93FF930D
:1013D0008091B4029091B5028093B2008091B702DF
:1013E0009091B802A091B902B091BA020196A11DE4
:1013F000B11D8093B7029093B802A093B902B09345
:10140000BA028091B7029091B802A091B902B0914E
:10141000BA024091B0025091B1026091B202709153
:10142000B30284179507A607B70710F18091B6029B
:1014300081111EC081E08093B6028091B702909125
:10144000B802A091B902B091BA02841B950BA60B09
:10145000B70B8093B7029093B802A093B902B093F0
:10146000BA02E091AE02F091AF0219951092B60265
:10147000FF91EF91BF91AF919F918F917F916F916C
:101480005F914F913F912F910F900BBE0F900FBE28
:101490000F901F9018951F920F920FB60F92112464
:1014A0002F933F934F935F936F938F939F93AF933C
:1014B000BF93609106018091BB029091BC029C0198
:1014C0002170332720953095462F417050E024231A
:1014D0003523232B71F18091210390912203A09158
:1014E0002303B0912403789B20C00197A109B1097F
:1014F0008093210390932203A0932303B0932403AA
:101500008091060190E09093BC028093BB02BF9152
:10151000AF919F918F916F915F914F913F912F91DB
:101520000F900FBE0F901F9018950196A11DB11D31
:10153000DFCF2091060182709927809590952270C7
:1015400030E082239323892BD9F280912503909157
:101550002603A0912703B0912803799B0CC0019723
:10156000A109B1098093250390932603A093270333
:10157000B0932803C5CF0196A11DB11DF3CF1F92D3
:101580000F920FB60F9211242F933F934F935F93B7
:101590006F938F939F93AF93BF936091030180915B
:1015A000BD029091BE029C01217033272095309599
:1015B000462F417050E024233523232B71F1809175
:1015C000190390911A03A0911B03B0911C03329B45
:1015D00020C00197A109B1098093190390931A03C0
:1015E000A0931B03B0931C038091030190E09093A0
:1015F000BE028093BD02BF91AF919F918F916F9179
:101600005F914F913F912F910F900FBE0F901F90C0
:1016100018950196A11DB11DDFCF209103018270A5
:10162000992780959095227030E082239323892B0F
:10163000D9F280911D0390911E03A0911F03B091D8
:101640002003339B0CC00197A109B10980931D03AE
:1016500090931E03A0931F03B0932003C5CF019660
:10166000A11DB11DF3CF1F920F920FB60F9211243F
:101670002F933F934F935F938F939F93AF93BF931A
:1016800043B18091BF029091C0029C012071332729
:1016900020953095407150E024233523232B61F1B0
:1016A0008091110390911203A0911303B091140340
:1016B000309B1EC00197A109B1098093110390933B
:1016C0001203A0931303B093140383B190E090939B
:1016D000C0028093BF02BF91AF919F918F915F91A4
:1016E0004F913F912F910F900FBE0F901F90189523
:1016F0000196A11DB11DE1CF23B18072992780957C
:101700009095207230E082239323892BF1F280910F
:10171000150390911603A0911703B0911803319B04
:101720000CC00197A109B10980931503909316038A
:10173000A0931703B0931803C8CF0196A11DB11D44
:10174000F3CFE2EAF3E01382128288EE93E0A0E0A6
:10175000B0E084839583A683B7832DE132E03183A3
:10176000208325EC30E03587248724EC30E0378770
:10177000268720EC30E0318B208B21EC30E0338B5E
:10178000228B22EC30E0358B248B26EC30E0378B3B
:10179000268B118E128E138E148EEFE3F4E01382DB
:1017A000128284839583A683B7838FE292E091832C
:1017B0008083ABE4B4E080E48C931296FC93EE93C8
:1017C00011970895CF93DF9300D000D0CDB7DEB747
:1017D000789484B5826084BD84B5816084BD85B50C
:1017E000826085BD85B5816085BD80916E00816018
:1017F00080936E00109281008091810082608093BE
:1018000081008091810081608093810080918000BF
:101810008160809380008091B10084608093B100EA
:101820008091B00081608093B000809191008260CF
:1018300080939100809191008160809391008091CC
:1018400090008160809390008091A10082608093DD
:10185000A1008091A10081608093A1008091A000EF
:1018600081608093A000809121018260809321019A
:10187000809121018160809321018091200181600C
:101880008093200180917A00846080937A00809117
:101890007A00826080937A0080917A0081608093E0
:1018A0007A0080917A00806880937A001092C1005B
:1018B0008091680087608093680090E390936B004C
:1018C00086E080936C0083E080936D0011B817B8B8
:1018D00010BA2CE02BB91DB89EB92EB1206C2EB9D0
:1018E00095B980930501809308019FE092B998B95A
:1018F00081BB789483B1837090E09093C002809311
:10190000BF0280910301867090E09093BE028093A5
:10191000BD0280910601837090E09093BC02809399
:10192000BB0284E08093D50285E08093D60287E0F5
:101930008093D70288E08093D80288E090E090936B
:1019400052038093510320915103309152033A8303
:1019500029832A303105C4F48901000F111F0B536C
:101960001D4F61E0D8018C910E94750361E0F80180
:1019700081810E94750329813A812F5F3F4F309307
:10198000520320935103DFCF109252031092510360
:1019900040915103509152035A8349834430510579
:1019A000B4F4FA01EE0FFF1FEF5EFD4F108160E00F
:1019B000812F0E94750361E0812F0E94E9028981D5
:1019C0009A8101969093520380935103E1CF87E966
:1019D00096E090930A0280930902809169008063E7
:1019E00080936900EA9A8DE796E090930C028093C9
:1019F0000B0280916900806C80936900EB9A83E60A
:101A000096E0909302028093010280916A008360C5
:101A100080936A00EC9A89E496E0909304028093A4
:101A2000030280916A008C6080936A00ED9A8CEDCD
:101A300091E090930E0280930D0280916A008F7C5A
:101A4000806280936A00EE9A80EE91E0909310029B
:101A500080930F0280916A008F73806880936A0080
:101A6000EF9A1092AD021092AC0210927F03109286
:101A7000A10310927D0381E080937C0310925703B1
:101A800061E084E10E94E90261E085E10E94E902EF
:101A90008091B9008E7F8093B9008091B9008D7FCD
:101AA0008093B90088E48093B80085E48093BC00FB
:101AB00084EE91E09093AB028093AA0285EE91E0D0
:101AC0009093A9028093A80260E880E00E948501BB
:101AD0006AE070E080E090E00E94A00460914E0413
:101AE00070914F04809150049091510476D320E07E
:101AF00030E04AE75AE4DDD220E030E040E05FE346
:101B000070D220E030E040E85FE36AD26B017C01F4
:101B100020E030E040E450E4C8D287FD1AC220E063
:101B200030E04FE753E4C701B60109D418160CF4AE
:101B300016C2C701B60125D36D8380914C049091E4
:101B40004D0420914B0431E030937E032093A00399
:101B500010927F031092A103DC01ED91FC910190A2
:101B6000F081E02D60E0199581E00E9428018091CC
:101B70004B0490917D039111FCCF91E090937D03F4
:101B800090937C032FEF20937B0310927A031092A3
:101B900079039093580390915803880F892B809371
:101BA000580380915703813009F0E0C11092570328
:101BB000809158038093BB008091BC0083FDF8CFD7
:101BC00085EC8093BC0080917D038130E1F38091AE
:101BD0007A0391E0811102C090917A03A9E5B3E004
:101BE000E8E8F2E080E08913C3C11092AD0280936F
:101BF000AC0280914C0490914D04DC01ED91FC917C
:101C00000284F385E02D19958983682F6F766061D2
:101C100080E00E9485016D818EEF0E9485016981BF
:101C200080E00E94850165E070E080E090E00E9425
:101C3000A0046981606A80E00E94850180E498E7E1
:101C4000ADE7B1E080934E0490934F04A09350040D
:101C5000B09351048CE08093B80084E190E0A0E060
:101C6000B0E08093290390932A03A0932B03B093B1
:101C70002C03E091B203F091B30382E08083E09102
:101C8000AE03F091AF031082E091B003F091B10385
:101C90008FEC80831092BA03E091B603F091B70302
:101CA00086E08083E091B403F091B5038081806188
:101CB0008083E091B403F091B503808188608083D4
:101CC000E091B403F091B503808180688083E09156
:101CD000B403F091B50380818F7D808380ED97E020
:101CE000A0E0B0E08093B0029093B102A093B20262
:101CF000B093B3028EEC95E09093AF028093AE0266
:101D0000809170008E7F809370008091B0008C7FF6
:101D10008093B0008091B100877F8093B100809163
:101D2000B6008F7D8093B600809170008D7F809388
:101D300070008091B10084608093B1008091B10007
:101D40008C7F8093B10086E090E09093B502809301
:101D5000B4021092B7021092B8021092B902109217
:101D6000BA021092B6028091B4029091B5028093AB
:101D7000B200809170008160809370008FB7F894FA
:101D80008090C1029090C202A090C302B090C402A1
:101D90008FBF8091530390915403A0915503B0914C
:101DA0005603881A990AAA0ABB0A2FB7F894809199
:101DB000C1029091C202A091C302B091C4022FBF90
:101DC0008093530390935403A0935503B093560309
:101DD0001092520310925103BFEF8B1A9B0AAB0A69
:101DE000BB0AE0915103F0915203FE83ED83EA3088
:101DF000F1050CF0F2C08F01000F111F000F111F31
:101E0000D801A75DBC4FF801EF5FFC4F4D905D908E
:101E10006D907C9080819181A281B381481A590A8A
:101E20006A0A7B0A07521D4FD801CD90DD90ED90D4
:101E3000FC90C40CD51CE61CF71CC701B60124E1BC
:101E400030E040E050E08ED2CA01B901A501940112
:101E50007AD269837A838B839C83A4E6B0E0A30162
:101E60009201A4D229813A814B815C81260F371FD0
:101E7000481F591FDA01C9013DE2C31631E0D306FC
:101E8000E104F10434F07CE2C72EDD24D394E12C8C
:101E9000F12C44EDC4164EEFD4064FEFE406F406E1
:101EA0003CF464EDC62E6EEFD62EEE24EA94FE2CA2
:101EB000F801C082D182E282F3826C017D0181153A
:101EC000F0E19F07A105B10534F0CC24CA945FE08E
:101ED000D52EE12CF12C21E0C21620EFD2062FEFF7
:101EE000E206F2063CF4CC24C39440EFD42EEE2458
:101EF000EA94FE2CF7FE08C0F094E094D094C094CD
:101F0000C11CD11CE11CF11C4D815E814830510582
:101F1000F4F5440F49834F5F4D83181619061A06CE
:101F20001B0654F5A60161E070E089810E94D80487
:101F300040E050E170E060E08D810E94D804809123
:101F40005103909152030196909352038093510351
:101F500048CFC12CD12CA0E4EA2EFE2CEACDC12C16
:101F6000D12CFFE7EF2EF3E4FF2EE3CD85EE29CE53
:101F70002D9121938F5F37CE40E050E170E060E01B
:101F800089810E94D804A60161E070E0D5CFED817F
:101F9000FE81EE0FFF1FEB53FD4F208134E0F594DF
:101FA000E794D794C7943A95D1F7F181F98318163D
:101FB00019061A061B0654F4B601822F0E94A603C6
:101FC00070E060E089810E94A603B9CF70E060E014
:101FD000822F0E94A603B601F5CF0E94B902CECE91
:101FE0005058BB27AA270ED070C161D130F066D1FE
:101FF00020F031F49F3F11F41EF456C10EF4E09529
:10200000E7FB4CC1E92F72D180F3BA17620773075F
:102010008407950718F071F49EF58AC10EF4E095D7
:102020000B2EBA2FA02D0B01B90190010C01CA0192
:10203000A0011124FF27591B99F0593F50F4503E3D
:1020400068F11A16F040A22F232F342F4427585F2F
:10205000F3CF469537952795A795F0405395C9F747
:102060007EF41F16BA0B620B730B840BBAF09150FF
:10207000A1F0FF0FBB1F661F771F881FC2F70EC09E
:10208000BA0F621F731F841F48F487957795679571
:10209000B795F7959E3F08F0B3CF9395880F08F05A
:1020A0009927EE0F979587950895D4D008F481E08D
:1020B00008950CD00AC102D140F0F9D030F021F4DB
:1020C0005F3F19F0EBC0511134C1EEC00FD198F34E
:1020D0009923C9F35523B1F3951B550BBB27AA27A9
:1020E00062177307840738F09F5F5F4F220F331F1B
:1020F000441FAA1FA9F333D00E2E3AF0E0E830D0E7
:1021000091505040E695001CCAF729D0FE2F27D0E9
:10211000660F771F881FBB1F261737074807AB07B7
:10212000B0E809F0BB0B802DBF01FF2793585F4F2C
:102130002AF09E3F510568F0B1C0FBC05F3FECF351
:10214000983EDCF3869577956795B795F7959F5FF1
:10215000C9F7880F911D9695879597F90895E1E045
:10216000660F771F881FBB1F621773078407BA07A4
:1021700020F0621B730B840BBA0BEE1F88F7E095FF
:102180000895BCD088F09F5790F0B92F9927B75188
:10219000A0F0D1F0660F771F881F991F1AF0BA952B
:1021A000C9F712C0B13081F0C3D0B1E00895C0C00A
:1021B000672F782F8827B85F39F0B93FCCF3869521
:1021C00077956795B395D9F73EF49095809570957E
:1021D00061957F4F8F4F9F4F0895E89409C097FBFB
:1021E0003EF490958095709561957F4F8F4F9F4FEE
:1021F0009923A9F0F92F96E9BB279395F695879532
:1022000077956795B795F111F8CFFAF4BB0F11F4F4
:1022100060FF1BC06F5F7F4F8F4F9F4F16C088239B
:1022200011F096E911C0772321F09EE8872F762FD1
:1022300005C0662371F096E8862F70E060E02AF012
:102240009A95660F771F881FDAF7880F96958795FE
:1022500097F90895990F0008550FAA0BE0E8FEEFD3
:1022600016161706E807F907C0F012161306E4075A
:10227000F50798F0621B730B840B950B39F40A2653
:1022800061F0232B242B252B21F408950A2609F431
:10229000A140A6958FEF811D811D089597F99F6735
:1022A00080E870E060E008959FEF80EC08950024DE
:1022B0000A941616170618060906089500240A94AB
:1022C00012161306140605060895092E0394000C31
:1022D00011F4882352F0BB0F40F4BF2B11F460FFC0
:1022E00004C06F5F7F4F8F4F9F4F089557FD9058E9
:1022F000440F551F59F05F3F71F04795880F97FBCA
:10230000991F61F09F3F79F0879508951216130683
:102310001406551FF2CF4695F1DF08C016161706B2
:102320001806991FF1CF86957105610508940895E7
:10233000E894BB2766277727CB0197F908958ADFB2
:1023400008F48FEF0895DB018F939F932FD0BF91F7
:10235000AF91A29F800D911DA39F900DB29F900DF4
:1023600011240895052E97FB16F400940FD057FD05
:1023700005D026D007FC02D046F408C05095409501
:10238000309521953F4F4F4F5F4F08959095809521
:10239000709561957F4F8F4F9F4F0895EE0FFF1FF0
:1023A000881F8BBF0790F691E02D19942BD0A59F25
:1023B000900DB49F900DA49F800D911D1124089540
:1023C000A1E21A2EAA1BBB1BFD010DC0AA1FBB1F39
:1023D000EE1FFF1FA217B307E407F50720F0A21BAB
:1023E000B30BE40BF50B661F771F881F991F1A9418
:1023F00069F760957095809590959B01AC01BD0142
:10240000CF010895A29FB001B39FC001A39F700D9B
:10241000811D1124911DB29F700D811D1124911DEC
:062420000895F894FFCFBF
:1024260001D004D004D004D004D004D004D004D009
:10243600041300120002000300000000004E02AF69
:1024460001E6019A021702F5010902000000009D4B
:0E245600057105CB0547056A055705480500C9
:020000023000CC
:10E000000D9489F10D94B2F10D94B2F10D94B2F129
:10E010000D94B2F10D94B2F10D94B2F10D94B2F1F0
:10E020000D94B2F10D94B2F10D94B2F10D94B2F1E0
:10E030000D94B2F10D94B2F10D94B2F10D94B2F1D0
:10E040000D94B2F10D94B2F10D94B2F10D94B2F1C0
:10E050000D94B2F10D94B2F10D94B2F10D94B2F1B0
:10E060000D94B2F10D94B2F10D94B2F10D94B2F1A0
:10E070000D94B2F10D94B2F10D94B2F10D94B2F190
:10E080000D94B2F10D94B2F10D94B2F10D94B2F180
:10E090000D94B2F10D94B2F10D94B2F10D94B2F170
:10E0A0000D94B2F10D94B2F10D94B2F10D94B2F160
:10E0B0000D94B2F10D94B2F10D94B2F10D94B2F150
:10E0C0000D94B2F10D94B2F10D94B2F10D94B2F140
:10E0D0000D94B2F10D94B2F10D94B2F10D94B2F130
:10E0E0000D94B2F141546D656761323536300041AF
:10E0F000726475696E6F206578706C6F72657220DE
:10E1000073746B3530305632206279204D4C530099
:10E11000426F6F746C6F616465723E004875683F52
:10E1200000436F6D70696C6564206F6E203D200048
:10E130004350552054797065202020203D20005FF9
:10E140005F4156525F415243485F5F3D2000415658
:10E1500052204C696243205665723D20004743437C
:10E160002056657273696F6E203D20004350552024
:10E1700049442020202020203D20004C6F7720663D
:10E18000757365202020203D20004869676820665F
:10E190007573652020203D200045787420667573D6
:10E1A00065202020203D20004C6F636B2066757336
:10E1B000652020203D20004D617220203720323024
:10E1C000313300312E362E3800342E332E350056A2
:10E1D00023202020414444522020206F7020636F70
:10E1E00064652020202020696E73747275637469E1
:10E1F0006F6E2061646472202020496E74657272B3
:10E20000757074006E6F20766563746F7200726A49
:10E210006D702020006A6D70200057686174207056
:10E220006F72743A00506F7274206E6F7420737541
:10E2300070706F72746564004D7573742062652030
:10E2400061206C6574746572002000577269747483
:10E25000696E672045450052656164696E672045B7
:10E26000450045452065727220636E743D00504F35
:10E27000525400303D5A65726F2061646472003FF1
:10E280003D43505520737461747300403D454550C3
:10E29000524F4D207465737400423D426C696E6B41
:10E2A000204C454400453D44756D70204545505215
:10E2B0004F4D00463D44756D7020464C415348001B
:10E2C000483D48656C70004C3D4C69737420492F83
:10E2D0004F20506F72747300513D51756974005234
:10E2E0003D44756D702052414D00563D73686F7707
:10E2F00020696E7465727275707420566563746FF0
:10E30000727300593D506F727420626C696E6B00BD
:10E310002A0011241FBECFEFD1E2DEBFCDBF01E046
:10E320000CBF12E0A0E0B2E0EEE1FDEF03E00BBFB6
:10E3300002C007900D92A030B107D9F712E0A0E01B
:10E34000B2E001C01D92AE30B107E1F70F9460F367
:10E350000D948DFE01E20EBF0FEF0DBF11241FBE05
:10E360000D9460F30D9400F020E030E040ED57E0B4
:10E3700005C0FA013197F1F72F5F3F4F2817390792
:10E38000C0F308959C01260F311DC901A0E0B0E043
:10E390002F5F3F4FABBFFC018791882361F08093D3
:10E3A000C6008091C00086FFFCCF8091C0008064D1
:10E3B0008093C000EACF08958DE08093C6008091DD
:10E3C000C00086FFFCCF8091C00080648093C000B5
:10E3D0008AE08093C6008091C00086FFFCCF8091C8
:10E3E000C00080648093C00008950F94C2F10F9420
:10E3F000DCF10895FC019081992359F09093C600B7
:10E400008091C00086FFFCCF8091C0008064809323
:10E41000C0003196992379F70895282F982F929567
:10E420009F70892F805D8A3308F0895F8093C600D2
:10E430008091C00086FFFCCF8091C00080648093F3
:10E44000C000822F8F70982F905D9A3308F0995FEB
:10E450009093C6008091C00086FFFCCF8091C000E1
:10E4600080648093C00008959C01FB01853691056E
:10E470001CF46330710594F0C90164E670E00F94F8
:10E480002EFE605D7F4F6093C6008091C00086FFC6
:10E49000FCCF8091C00080648093C0002B30310598
:10E4A00014F43297B4F0C90164E670E00F942EFEC4
:10E4B0006AE070E00F942EFE605D7F4F6093C600AF
:10E4C0008091C00086FFFCCF8091C0008064809363
:10E4D000C000C9016AE070E00F942EFEC0968093E0
:10E4E000C6008091C00086FFFCCF8091C000806490
:10E4F0008093C00008951F93182F8EE692EE60E07F
:10E500000F94C2F11093C6008091C00086FFFCCF2B
:10E510008091C00080648093C0000F94DCF11F9153
:10E5200008952F923F924F925F926F927F928F92B7
:10E530009F92AF92BF92CF92DF92EF92FF920F9392
:10E540001F93DF93CF93CDB7DEB762970FB6F894E2
:10E55000DEBF0FBECDBF382E622ECA01DB015C01CB
:10E560006D01772420E2222E2E010894411C511CBB
:10E570008BC081E0A81680E0B80681E0C80680E084
:10E58000D80628F0C601AA27BB270F940DF2BB2797
:10E59000AD2D9C2D8B2D0F940DF28A2D0F940DF225
:10E5A0002092C6008091C00086FFFCCF8091C00001
:10E5B00080648093C0009DE29093C6008091C0006B
:10E5C00086FFFCCF8091C00080648093C0002092C1
:10E5D000C6008091C00086FFFCCF8091C00080649F
:10E5E0008093C00019828601750188249924A1E0D6
:10E5F0003A1651F03A1620F0B2E03B1661F409C029
:10E600000BBFF701779007C0C7010F9477FE782EF4
:10E6100002C0F7017080872D0F940DF22092C60082
:10E620008091C00086FFFCCF8091C0008064809301
:10E63000C000872D8052F401EF70F0708F3520F408
:10E64000E40DF51D708204C0E40DF51D8EE280839B
:10E650000894E11CF11C011D111D0894811C911CE2
:10E6600090E18916910409F0C2CF80E190E0A0E02A
:10E67000B0E0A80EB91ECA1EDB1E198AC2010F9493
:10E68000FAF10F94DCF16A94662009F072CF629679
:10E690000FB6F894DEBF0FBECDBFCF91DF911F91B3
:10E6A0000F91FF90EF90DF90CF90BF90AF909F9031
:10E6B0008F907F906F905F904F903F902F90089534
:10E6C0002F923F924F925F926F927F928F929F9282
:10E6D000AF92BF92CF92DF92EF92FF920F931F9370
:10E6E000DF93CF93CDB7DEB7CD53D1400FB6F894BB
:10E6F000DEBF0FBECDBF01E20EBF0FEF0DBF94B75F
:10E70000F894A89514BE80916000886180936000A1
:10E7100010926000789493FF05C0E0910002F091A0
:10E7200001021995279A2F9A8091C00082608093E8
:10E73000C00080E18093C40088E18093C1000000A4
:10E74000EE24FF24870144E0A42EB12CCC24DD2448
:10E7500024C0C5010197F1F70894E11CF11C011DCB
:10E76000111D21E2E2162EE4F20620E0020720E06D
:10E77000120718F031E0C32ED12CC801B70127ECE5
:10E780003BE140E050E00F9441FE611571058105C9
:10E79000910519F485B1805885B98091C00087FD35
:10E7A00003C0C114D104A9F2A6014F5F5F4FC25E3E
:10E7B000DE4F59834883CE51D140C25EDE4F8881FF
:10E7C0009981CE51D140019711F00D9410FEC05D9A
:10E7D000DE4F19821882C053D14060E0C15DDE4F28
:10E7E0001882CF52D14088249924C35DDE4F19820C
:10E7F0001882CD52D140C05EDE4F188219821A8233
:10E800001B82C052D140CE5CDE4F188219821A8220
:10E810001B82C253D140EE24FF2487010BBFF701B6
:10E8200007911691C45CDE4F19830883CC53D14005
:10E830000D940BFEC25EDE4F28813981CE51D1404E
:10E840002130310509F52091C600C25EDE4F1982E4
:10E850001882CE51D14022C02F5F3F4F4F4F5F4FA4
:10E86000213082E138078AE7480780E0580780F0C6
:10E87000C45CDE4FE881F981CC53D140EF5FFF4F9C
:10E8800019F0EE27FF27099420E030E040E050E047
:10E890008091C00087FFE0CF2091C600C35DDE4FAE
:10E8A00048815981CD52D1404F5F5F4FC35DDE4FEC
:10E8B00059834883CD52D140213209F063C64A3092
:10E8C000510508F05FC60894811C911C53E0851621
:10E8D000910409F059C600E010E018C081E280936D
:10E8E000C6008091C00086FFFCCF8091C00080648C
:10E8F0008093C0002F5F3F4F2931310579F70F9486
:10E90000DCF10F5F1F4F0530110519F020E030E0FA
:10E91000E5CF10920A0210920B0210920C02109294
:10E920000D02109206021092070210920802109235
:10E930000902109202021092030210920402109235
:10E9400005028FEE90EE60E00F94F5F180E191EE1C
:10E9500060E00F94C2F18091C00087FFFCCF9091DE
:10E96000C600903608F09F759032B8F09093C600BC
:10E970008091C00086FFFCCF8091C00080648093AE
:10E98000C000A0E2A093C6008091C00086FFFCCF2B
:10E990008091C00080648093C000983409F4D7C18E
:10E9A0009934B8F4923409F459C1933458F490333B
:10E9B00019F1903308F4E3C59F33A1F1903409F0C5
:10E9C000DEC5BDC0953409F470C1963409F0D7C5D1
:10E9D00098C1923509F42BC2933538F49C3409F46C
:10E9E000F5C1913509F0CBC518C2963509F445C279
:10E9F000993509F0C4C567C483E792EE62E00F94CD
:10EA0000F5F110920602109207021092080210927D
:10EA1000090210920A0210920B0210920C0210923C
:10EA20000D0213C18FE792EE62E00F94F5F18FEEC5
:10EA300090EE60E00F94F5F181E291EE60E00F94CA
:10EA4000C2F187EB91EE60E00F94F5F180E391EE77
:10EA500060E00F94C2F184EE90EE60E00F94F5F167
:10EA60008FE391EE60E00F94C2F186E090E061E008
:10EA700070E00F9434F20F94DCF18DE591EE60E0DC
:10EA80000F94C2F189EC91EE60E00F94F5F18EE401
:10EA900091EE60E00F94C2F183EC91EE60E00F9490
:10EAA000F5F18CE691EE60E00F94C2F18EE10F94E7
:10EAB0000DF288E90F940DF281E00F940DF20F949E
:10EAC000DCF18BE791EE60E00F94C2F119E0E0E039
:10EAD000F0E010935700E4918E2F0F940DF20F94F5
:10EAE000DCF18AE891EE60E00F94C2F1E3E0F0E03F
:10EAF00010935700E4918E2F0F940DF20F94DCF1D8
:10EB000089E991EE60E00F94C2F1E2E0F0E0109349
:10EB10005700E4918E2F0F940DF20F94DCF188EAE8
:10EB200091EE60E00F94C2F1E1E0F0E01093570045
:10EB30001491812F0F940DF20F94DCF107CF8BE825
:10EB400092EE62E00F94F5F18BE492EE60E00F94A8
:10EB5000F5F10F94DCF100E010E019C0C8016F2D51
:10EB60000F947FFEFF2031F489E492EE60E00F9471
:10EB7000C2F10BC0F092C6008091C00086FFFCCFAE
:10EB80008091C00080648093C0000F5F1F4FC80158
:10EB900081519F41A0E0B0E0ABBFFC01F790BAE229
:10EBA000FB1621F0E2E000301E07C1F60F94DCF105
:10EBB0000F94DCF187E592EE60E00F94F5F10F948D
:10EBC000DCF1CC24DD2400E010E01EC0C8010F946D
:10EBD00077FEF82E882331F489E492EE60E00F94FA
:10EBE000C2F10BC08093C6008091C00086FFFCCFAD
:10EBF0008091C00080648093C000FE1419F00894D6
:10EC0000C11CD11C0F5F1F4FC80181519F41A0E063
:10EC1000B0E0ABBFFC01E790FAE2EF1621F022E092
:10EC20000030120799F60F94DCF10F94DCF182E6C4
:10EC300092EE60E00F94C2F1C60161E070E00F94C3
:10EC400034F20F94DCF10F94DCF110920202109276
:10EC50000302109204021092050278CE89E992EE26
:10EC600062E00F94F5F1279A2F9A16C02F9880E052
:10EC700090E0E0EDF7E03197F1F7019684369105E9
:10EC8000C1F72F9A80E090E0E0EDF7E03197F1F7DF
:10EC9000019684369105C1F78091C00087FFE6CFC9
:10ECA0008091C00087FFFCCF64C485EA92EE62E0E9
:10ECB0000F94F5F140910202509103026091040219
:10ECC0007091050281E020E10F9491F2809102029F
:10ECD00090910302A0910402B091050280509F4FD1
:10ECE000AF4FBF4F8093020290930302A0930402A0
:10ECF000B093050280509041A040B04008F426CE69
:10ED0000A4CF83EB92EE62E00F94F5F140910602FE
:10ED100050910702609108027091090280E020E1A1
:10ED20000F9491F28091060290910702A09108023F
:10ED3000B091090280509F4FAF4FBF4F80930602A2
:10ED400090930702A0930802B0930902FFCD80ECD4
:10ED500092EE62E00F94F5F183E792EE60E00F949B
:10ED6000F5F18FE792EE60E00F94F5F18BE892EE0B
:10ED700060E00F94F5F189E992EE60E00F94F5F10F
:10ED800085EA92EE60E00F94F5F183EB92EE60E09D
:10ED90000F94F5F180EC92EE60E00F94F5F187ECC2
:10EDA00092EE60E00F94F5F188ED92EE60E00F9442
:10EDB000F5F18FED92EE60E00F94F5F18AEE92EEB0
:10EDC00060E00F94F5F183E093EEBDCD87EC92EE19
:10EDD00062E00F94F5F181E40F947BF282E40F94EA
:10EDE0007BF283E40F947BF284E40F947BF285E45E
:10EDF0000F947BF286E40F947BF287E40F947BF20E
:10EE000088E40F947BF28AE40F947BF28BE40F94F6
:10EE10007BF28CE40F947BF299CD88ED92EE62E068
:10EE20000F94F5F1772473948824992409C48FED05
:10EE300092EE62E00F94F5F140910A0250910B02BC
:10EE400060910C0270910D0282E020E10F9491F22A
:10EE500080910A0290910B02A0910C02B0910D02D8
:10EE600080509F4FAF4FBF4F80930A0290930B0289
:10EE7000A0930C02B0930D0269CD8AEE92EE62E08F
:10EE80000F94F5F184EE90EE60E00F94F5F18FECC5
:10EE900091EE60E00F94F5F1662477244301CC5D98
:10EEA000DE4F19821882C452D140D401C301B695F5
:10EEB000A79597958795CA5DDE4F88839983AA8326
:10EEC000BB83C652D140CC5DDE4FA881B981C4520C
:10EED000D1401196CC5DDE4FB983A883C452D14096
:10EEE000CD0162E070E00F9434F2B0E2B093C6005E
:10EEF0008091C00086FFFCCF8091C0008064809329
:10EF0000C000EDE2E093C6008091C00086FFFCCF18
:10EF10008091C00080648093C000F0E2F093C6004E
:10EF20008091C00086FFFCCF8091C00080648093F8
:10EF3000C000CA5DDE4FE880F9800A811B81C6529D
:10EF4000D140BB27A12F902F8F2D0F940DF2CA5DBA
:10EF5000DE4F8881C652D1400F940DF2B0E2FB2EF5
:10EF6000F092C6008091C00086FFFCCF8091C00067
:10EF700080648093C0000DE30093C6008091C000C0
:10EF800086FFFCCF8091C00080648093C00010E2B7
:10EF90001093C6008091C00086FFFCCF8091C00016
:10EFA00080648093C0008BBEF3012791C65DDE4F65
:10EFB0002883CA52D140A22EBB24CC24DD2408943D
:10EFC000611C711C811C911C8BBEF3018791282E42
:10EFD0003324442455240894611C711C811C911C09
:10EFE0008BBEF3013791C55DDE4F3883CB52D140E4
:10EFF0000894611C711C811C911C8BBEF30147910C
:10F00000C45DDE4F4883CC52D140ADEFEA2EAFEF66
:10F01000FA2EAFEF0A2FAFEF1A2F6E0C7F1C801E57
:10F02000911E142D032DF22CEE24EA0CFB1C0C1D5A
:10F030001D1D0F940DF220E22093C6008091C000A8
:10F0400086FFFCCF8091C00080648093C000C65DC5
:10F05000DE4F8881CA52D1400F940DF230E23093D6
:10F06000C6008091C00086FFFCCF8091C000806404
:10F070008093C000C45DDE4F8881CC52D1400F9494
:10F080000DF240E24093C6008091C00086FFFCCFA5
:10F090008091C00080648093C000C55DDE4F888190
:10F0A000CB52D1400F940DF250E25093C6008091A4
:10F0B000C00086FFFCCF8091C00080648093C000B8
:10F0C0008FEFE8168FEFF80680E0080780E018075A
:10F0D00031F484E092EE60E00F94C2F1DFC0D80119
:10F0E000C7018070907CA070B0708050904CA040A0
:10F0F000B040D1F52FEF3FE340E050E0E222F322B1
:10F1000004231523CA5DDE4FA880B980CA80DB8046
:10F11000C652D140AE0CBF1CC01ED11EAA0CBB1CD7
:10F12000CC1CDD1C8EE092EE60E00F94C2F1BB2798
:10F13000A12F902F8F2D0F940DF28E2D0F940DF285
:10F1400030E23093C6008091C00086FFFCCF8091F2
:10F15000C00080648093C0004EE34093C60080915D
:10F16000C00086FFFCCF87C08EE09EEFA0E0B0E03D
:10F17000E822F9220A231B239CE0E91694E9F90608
:10F1800090E0090790E0190709F088C0C45DDE4FE0
:10F19000A881CC52D140EA2EFF2400E010E0102FCD
:10F1A0000F2DFE2CEE24C55DDE4FB881CB52D14031
:10F1B000EB0EF11C011D111DD601C501817090706F
:10F1C000A070B070DC0199278827E80EF91E0A1F8D
:10F1D0001B1F20EF30E040E050E0A222B322C42207
:10F1E000D52241E1AA0CBB1CCC1CDD1C4A95D1F7F1
:10F1F000EA0CFB1C0C1D1D1D81E090E0A0E0B0E0BE
:10F20000282239224A225B2235E1220C331C441C7D
:10F21000551C3A95D1F7E20CF31C041D151D57013E
:10F220006801AA0CBB1CCC1CDD1C85E192EE60E0E1
:10F230000F94C2F1C801AA27BB270F940DF2BB2778
:10F24000A12F902F8F2D0F940DF28E2D0F940DF274
:10F2500090E29093C6008091C00086FFFCCF809121
:10F26000C00080648093C000AEE3A093C60080918C
:10F27000C00086FFFCCF8091C00080648093C000F6
:10F28000C601AA27BB270F940DF2BB27AD2D9C2DDD
:10F290008B2D0F940DF28A2D0F940DF20F94DCF14B
:10F2A000CC5DDE4FE881F981C452D140F99709F471
:10F2B0004DCBF4E0EF2EF12C012D112D6E0C7F1CA7
:10F2C000801E911EF2CD83E093EE62E00F94F5F183
:10F2D0008AE192EE60E00F94C2F18091C00087FF56
:10F2E000FCCF1091C6001F751093C6008091C0001E
:10F2F00086FFFCCF8091C00080648093C0000F9493
:10F30000DCF1812F81548A3108F036C1163409F4BA
:10F3100095C0173490F4133409F44EC0143430F40B
:10F320001134F1F0123409F01DC130C0143409F465
:10F3300059C0153409F016C16BC01A3409F4C4C0A1
:10F340001B3438F4173409F48FC0183409F00AC19B
:10F35000A1C01B3409F4D2C01C3409F003C1E8C0B9
:10F360008FEF81B90DC082B1809582B980E090E0C5
:10F37000E0EDF7E03197F1F70196883C9105C1F790
:10F380008091C00087FFEFCF12B8EFC08FEF84B934
:10F390000DC085B1809585B980E090E0E0EDF7E0A3
:10F3A0003197F1F70196883C9105C1F78091C00033
:10F3B00087FFEFCF15B8D9C08FEF87B90DC088B1DF
:10F3C000809588B980E090E0E0EDF7E03197F1F7C3
:10F3D0000196883C9105C1F78091C00087FFEFCF6F
:10F3E00018B8C3C08FEF8AB90DC08BB180958BB9A7
:10F3F00080E090E0E0EDF7E03197F1F70196883C8E
:10F400009105C1F78091C00087FFEFCF1BB8ADC059
:10F410008FEF8DB90DC08EB180958EB980E090E0F0
:10F42000E0EDF7E03197F1F70196883C9105C1F7DF
:10F430008091C00087FFEFCF1EB897C08FEF80BBD1
:10F440000DC081B3809581BB80E090E0E0EDF7E0F6
:10F450003197F1F70196883C9105C1F78091C00082
:10F4600087FFEFCF11BA81C08FEF83BB0DC084B38C
:10F47000809584BB80E090E0E0EDF7E03197F1F714
:10F480000196883C9105C1F78091C00087FFEFCFBE
:10F4900014BA6BC08FEF809301010FC080910201FD
:10F4A00080958093020180E090E0E0EDF7E03197F5
:10F4B000F1F70196883C9105C1F78091C00087FF64
:10F4C000EDCF1092020151C08FEF809304010FC065
:10F4D0008091050180958093050180E090E0E0ED4A
:10F4E000F7E03197F1F70196883C9105C1F78091DB
:10F4F000C00087FFEDCF1092050137C08FEF8093DA
:10F5000007010FC08091080180958093080180E079
:10F5100090E0E0EDF7E03197F1F70196883C910536
:10F52000C1F78091C00087FFEDCF109208011DC088
:10F530008FEF80930A010FC080910B01809580931B
:10F540000B0180E090E0E0EDF7E03197F1F70196F4
:10F55000883C9105C1F78091C00087FFEDCF1092E4
:10F560000B0103C085E292EEEEC98091C00087FFD7
:10F57000FCCF8091C600EAC988E392EEE4C98CE131
:10F5800091EEE1C988249924933011F1943028F444
:10F59000913089F09230B8F408C0953061F195301F
:10F5A000F0F0963009F048C043C02B3109F042C951
:10F5B00091E06BE13FC96227C15DDE4F2883CF52E6
:10F5C000D14092E037C9B22FA0E0622793E032C960
:10F5D000822F90E0A82BB92B622794E02BC92E3004
:10F5E00009F039C3622795E0C05DDE4F19821882A9
:10F5F000C053D1401FC9E1E0F0E0EC0FFD1FC05D3A
:10F60000DE4F08811981C053D140E00FF11F2083E4
:10F610000F5F1F4FC05DDE4F19830883C053D14079
:10F6200062270A171B0709F005C9D80196E002C92D
:10F63000261709F010C303C0973009F0FBC87724E0
:10F640009981933109F412C19431C8F4963009F4C8
:10F65000D8C0973050F4923009F406C1933009F4C1
:10F660006DC0913009F059C253C0913109F477C08F
:10F67000923108F0BBC0903109F04FC2F5C098310B
:10F6800009F487C0993150F4953109F4EFC09531F0
:10F6900008F4C6C1963109F040C2C2C19A3109F4DA
:10F6A0006CC09A3108F491C09B3109F45BC09D3164
:10F6B00009F033C29D81903359F48F81882311F46E
:10F6C0009EE11CC0813011F091E018C098E916C08D
:10F6D000892F807591F0903539F4E0E0F0E089E011
:10F6E0008093570094910AC0983539F4E3E0F0E034
:10F6F00089E080935700949101C090E01A821B82A8
:10F700008D818C831D829E831F8227E030E009C299
:10F710001A8288E08B8381E48C8386E58D8382E581
:10F720008E8389E48F8383E5888780E589878FE5E9
:10F730008A8782E38B872BE030E0F3C18A818139AD
:10F7400041F0823941F0803911F48FE005C080E04A
:10F7500003C082E001C08AE01A828B8344C0772410
:10F76000739482C08D81882311F48EE12CC0813086
:10F7700011F081E028C088E926C01A82E1E0F0E0BB
:10F7800089E08093570084918B831C8224E030E0D1
:10F79000C8C18B81803589F48C81883039F4E2E0EE
:10F7A000F0E089E08093570084910DC0E0E0F0E044
:10F7B00089E080935700849106C0E3E0F0E089E09F
:10F7C0008093570084911A82DFCF8D81836C99E0FA
:10F7D000E1E0F0E0082E90935700E89507B600FCB2
:10F7E000FDCF1A821B8223E030E09BC180EC8A832C
:10F7F000CE5CDE4F188219821A821B82C253D1401E
:10F800008EC18A8190E0A0E0B0E0582F44273327D2
:10F8100022278B8190E0A0E0B0E0DC0199278827C7
:10F82000282B392B4A2B5B2B8D8190E0A0E0B0E098
:10F83000282B392B4A2B5B2B8C8190E0A0E0B0E089
:10F84000BA2FA92F982F8827282B392B4A2B5B2BCF
:10F85000220F331F441F551FC05EDE4F288339839C
:10F860004A835B83C052D1401A8259C13A81C95C34
:10F87000DE4F3883C753D140CA5CDE4F1882C6536F
:10F88000D1408B81C82EDD24CA5CDE4F488159816E
:10F89000C653D140C42AD52A933109F082C0CE5C28
:10F8A000DE4F88819981AA81BB81C253D1408050AB
:10F8B000904CA340B04030F583E0CE5CDE4FE88052
:10F8C000F9800A811B81C253D140F70100935B008C
:10F8D00080935700E89507B600FCFDCFCE5CDE4F65
:10F8E000088119812A813B81C253D14000501F4FAA
:10F8F0002F4F3F4FCE5CDE4F088319832A833B8313
:10F90000C253D140C05EDE4F488159816A817B81FC
:10F91000C052D140DE011B9631E08C9111962C91A2
:10F9200011971296C75CDE4F2883C953D140C85C3B
:10F93000DE4F1882C853D14090E0C85CDE4FE881AA
:10F94000F981C853D1408E2B9F2B0C01FA01609393
:10F950005B0030935700E89511244E5F5F4F6F4F67
:10F960007F4F0EEFE02E0FEFF02ECE0CDF1CC114F8
:10F97000D10499F685E0C05EDE4F088119812A81A5
:10F980003B81C052D140F80120935B008093570027
:10F99000E89507B600FCFDCF81E180935700E8951C
:10F9A00035C0C05EDE4F88819981AA81BB81C0527B
:10F9B000D140B695A795979587957C018601ABE0D8
:10F9C000AA2EB12CAC0EBD1E0BC0D5016D915D01F0
:10F9D000C7010F947FFE0894E11CF11C01501040F8
:10F9E0000115110591F7A60160E070E0440F551F65
:10F9F000661F771FC05EDE4FE880F9800A811B8199
:10FA0000C052D1404E0D5F1D601F711F1A82C05E33
:10FA1000DE4F488359836A837B83C052D1407FC0C5
:10FA2000FA80C55CDE4FF882CB53D140C65CDE4F16
:10FA30001882CA53D1408B81C82EDD24C65CDE4FAC
:10FA400008811981CA53D140C02AD12A1A828981DA
:10FA5000BE016D5F7F4F843121F59601C05EDE4FA0
:10FA6000E880F9800A811B81C052D1400BBFF701A9
:10FA700087919691DB018C9311969C936E5F7F4FDB
:10FA8000D801C7010296A11DB11DC05EDE4F88835B
:10FA90009983AA83BB83C052D14022503040F1F6F3
:10FAA00036C0C05EDE4F288139814A815B81C052F9
:10FAB000D1400894C108D108760100E010E0089414
:10FAC000C11CD11C0894E11CF11C011D111DE20E8A
:10FAD000F31E041F151F21BDBB27A52F942F832FB5
:10FAE00082BD2F5F3F4F4F4F5F4FF89A80B5DB01CC
:10FAF0008D93BD012E153F054007510761F7C05E8C
:10FB0000DE4F288339834A835B83C052D1409601FC
:10FB10002D5F3F4FFB01108204C080EC8A8322E0FE
:10FB200030E08BE18093C6008091C00086FFFCCF5F
:10FB30008091C00080648093C000C15DDE4FF88179
:10FB4000CF52D140F093C6008091C00086FFFCCF19
:10FB50008091C00080648093C000432F3093C60022
:10FB60008091C00086FFFCCF8091C00080648093AC
:10FB7000C000922F2093C6008091C00086FFFCCF6A
:10FB80008091C00080648093C0008EE08093C600A6
:10FB90008091C00086FFFCCF8091C000806480937C
:10FBA000C00065E1C15DDE4FE880CF52D1406E25D7
:10FBB00069276427FE01319610C090819093C6009A
:10FBC0008091C00086FFFCCF31968091C000806498
:10FBD0008093C0006927215030402115310569F715
:10FBE0006093C6008091C00086FFFCCF8091C0006A
:10FBF00080648093C00085B1805885B9772081F4F6
:10FC0000C15DDE4F0881CF52D1400F5FC15DDE4F35
:10FC10000883CF52D14090E0A0E0B0E00D941AF4F8
:10FC200027982F9880E090E020ED37E0F901319798
:10FC3000F1F7019684369105C9F700008091C00064
:10FC40008D7F8093C00081E180935700E895EE2777
:10FC5000FF270994FFCF90E00D941AF497FB092E2B
:10FC600007260AD077FD04D02ED006D000201AF443
:10FC7000709561957F4F0895F6F7909581959F4F08
:10FC80000895A1E21A2EAA1BBB1BFD010DC0AA1FDD
:10FC9000BB1FEE1FFF1FA217B307E407F50720F0F5
:10FCA000A21BB30BE40BF50B661F771F881F991F70
:10FCB0001A9469F760957095809590959B01AC01B9
:10FCC000BD01CF010895AA1BBB1B51E107C0AA1FAC
:10FCD000BB1FA617B70710F0A61BB70B881F991FED
:10FCE0005A95A9F780959095BC01CD010895F99991
:10FCF000FECF92BD81BDF89A992780B50895262F31
:10FD0000F999FECF1FBA92BD81BD20BD0FB6F89400
:0EFD1000FA9AF99A0FBE01960895F894FFCF63
:040000033000E000E9
:00000001FF