:10000000F5C000000C9487080C945C080C9431082F
:10001000FDC70000D0C70000A3C7000076C70000DE
:1000200049C700000C94330B0C94BF0A0C944B0A84
:100030000EC100000CC100000AC100000C94D509DB
:1000400006C1000004C1000002C1000000C10000A0
:10005000FEC00000FCC00000FAC00000E1C60000C5
:10006000F6C00000A7C600007CC60000F0C000007B
:10007000EEC00000ECC00000EAC00000E8C00000D4
:10008000E6C00000E4C00000E2C00000E0C00000E4
:10009000DEC00000DCC00000DAC000000C94B20832
:1000A000D6C00000D4C00000D2C00000D0C0000004
:1000B000CEC00000CCC00000CAC00000C8C0000014
:1000C000C6C00000C4C00000C2C00000C0C0000024
:1000D000BEC00000BCC00000BAC00000B8C0000034
:1000E000B6C0000000002100240027002A002D00D7
:1000F0003000330001010000040107010A01000083
:100100002200250028002B002E00310034000201BF
:100110000000050108010B01050505050705080894
:100120000808020202020A0A080804040404010181
:100130000101010101010303030303030303040796
:1001400007070C0C0C0C0C0C0C0C0202020206062D
:100150000606060606060B0B0B0B0B0B0B0B010220
:1001600010202008081020401020408002010201C9
:100170000804020101020408102040808040201081
:1001800008040201800402018040201008040201DA
:100190000804020101020408102040800102040842
:1001A0001020408000000A0B02090C0D0E08070306
:1001B000040100000000000000000000000000003A
:1001C000000000000000000000000000000000002F
:1001D00012111000000000000000000000000000EC
:1001E00000000000000000000000A10B11241FBE51
:1001F000CFEFD1E2DEBFCDBF00E00CBF12E0A0E048
:10020000B2E0E6E2F4E200E00BBF02C007900D921C
:10021000AE33B107D9F724E0AEE3B2E001C01D92DE
:10022000A235B207E1F710E0C6EFD0E000E006C06B
:1002300021970109802FFE010E94CE11C53FD107F1
:1002400080E00807A9F70E94E20B0C941112D8CEA7
:10025000982F2091A10381E0213208F043C08091C2
:100260007D038111FCCF8091A00332E030937D03A8
:1002700090937C039FEF90937B0310927A032093DB
:100280007903A0E8B3E0E9E5F3E090E0291331C099
:100290001092580390915803880F892B809358032C
:1002A00080915703813049F510925703809158038C
:1002B0008093BB008091BC0083FDF8CF85EC8093D8
:1002C000BC0080917D038230E1F380917B038F3FFE
:1002D000B1F080917B038032A1F080917B03803369
:1002E00091F084E010927F031092A10310927E039C
:1002F00008953D9131939F5FC9CF85EEE0CF80E0B7
:10030000F1CF82E0EFCF83E0EDCF1F93CF93DF9368
:10031000162FCBE4D4E0A981BA81988121E0209303
:100320007E039093A00310927F031092A103ED919E
:10033000FC9111970190F081E02D682FCD01199566
:1003400089819A81DC01ED91FC910190F081E02D91
:10035000612F199581E0DF91CF911F9179CFAF92F5
:10036000BF92CF92DF92EF92FF920F931F93CF93A2
:10037000DF936C017B018B01040F151FEB015E0104
:10038000AE18BF08C017D10759F06991D601ED9199
:10039000FC910190F081E02DC6011995892B79F728
:1003A000C501DF91CF911F910F91FF90EF90DF90EA
:1003B000CF90BF90AF90089581E080933E02089562
:1003C00081E080933F02089508950895FC01538DC4
:1003D000448D252F30E0842F90E0821B930B54171F
:1003E00010F0CF96089501970895FC01918D828DAC
:1003F000981761F0A28DAE0FBF2FB11D5D968C9145
:10040000928D9F5F9F73928F90E008958FEF9FEF83
:100410000895FC01918D828D981731F0828DE80F3F
:10042000F11D858D90E008958FEF9FEF0895FC01F9
:10043000918D228D892F90E0805C9F4F821B9109C6
:100440008F739927089582EA93E0F1DF21E0892BE9
:1004500009F420E0822F0895FC01A48DA80FB92F84
:10046000B11DA35ABF4F2C91848D90E001968F73DC
:100470009927848FA689B7892C93A089B1898C91FB
:10048000837080648C93938D848D981306C002884A
:10049000F389E02D80818F7D80830895EF92FF9214
:1004A0000F931F93CF93DF93EC0181E0888F9B8D97
:1004B0008C8D98131AC0E889F989808185FF15C051
:1004C0009FB7F894EE89FF896083E889F989808174
:1004D0008370806480839FBF81E090E0DF91CF9143
:1004E0001F910F91FF90EF900895F62E0B8D10E065
:1004F0000F5F1F4F0F731127E02E8C8D8E110BC0D5
:100500000FB607FCFACFE889F989808185FFF5CF1E
:10051000CE01A2DFF2CFEB8DEC0FFD2FF11DE35AE0
:10052000FF4FF0829FB7F8940B8FEA89FB89808197
:100530008062D0CFCF93DF93EC01888D8823B1F018
:10054000AA89BB89E889F9898C9185FD03C08081DE
:1005500086FD0CC00FB607FCF7CF8C9185FFF2CF5C
:10056000808185FFEDCFCE0177DFEACFDF91CF919C
:10057000089580E090E0892B21F065DF81110E94D1
:10058000000080E090E0892B49F080E090E0892B2A
:1005900029F00E94000081110E94000080E090E09C
:1005A000892B49F080E090E0892B29F00E9400001F
:1005B00081110E94000080E090E0892B49F080E0EA
:1005C00090E0892B29F00E94000081110C9400001A
:1005D0000895282F30E0F901EC55FE4F9491F90170
:1005E000E25AFE4F4491285E3E4FF90124912223A6
:1005F00009F435C0992311F191509231F8F4E92FA3
:10060000F0E08827E95FFC4F8F4F0C94CE11380340
:100610003C031903300334031E033F03450349031E
:100620004F03530357035D0361031E0365036B030D
:100630006F03809180008F7780938000E22FF0E03D
:10064000EE0FFF1FE250FF4FA591B4918FB7F894C2
:10065000EC91611148C040954E234C938FBF089593
:10066000809180008F7DE8CF80918000877FE4CFEC
:1006700084B58F7784BDE2CF84B58F7DFBCF809129
:10068000B0008F778093B000D9CF8091B0008F7D7C
:10069000F9CF809190008F7780939000CFCF809199
:1006A00090008F7DF9CF80919000877FF5CF80916A
:1006B000A0008F778093A000C1CF8091A0008F7D94
:1006C000F9CF8091A000877FF5CF809120018F77AF
:1006D00080932001B3CF809120018F7DF9CF80914D
:1006E0002001877FF5CF4E2BB8CFCF93DF9390E0DB
:1006F000FC01E25AFE4F2491885E9E4FFC018491DA
:100700008823D1F090E0880F991FFC01EC51FF4F36
:10071000A591B491FC01E250FF4FC591D4916111B4
:100720000EC09FB7F8948C91E22FE0958E238C93A6
:100730002881E223E8839FBFDF91CF9108958FB78F
:10074000F894EC91E22BEC938FBFF6CF1F93CF93ED
:10075000DF93182FEB0161E0C8DF209731F460E0F0
:10076000812FDF91CF911F9134CFCF3FD10511F46D
:1007700061E0F6CFE12FF0E0EC55FE4FE491E1505F
:10078000E23108F0B3C0F0E08827E653FC4F8F4F0A
:100790000C94CE11DC03E403E903F303FD037604B8
:1007A00007040F04170421042B04350444044E04E9
:1007B0007604580462046C0484B5806884BDC7BDA7
:1007C000DF91CF911F91089584B5806284BDC8BD2B
:1007D000F7CF80918000806880938000D09389005B
:1007E000C0938800EDCF809180008062809380006C
:1007F000D0938B00C0938A00E3CF80918000886003
:1008000080938000D0938D00C0938C00D9CF8091CD
:10081000B00080688093B000C093B300D1CF8091C6
:10082000B00080628093B000C093B400C9CF8091C3
:100830009000806880939000D0939900C0939800B6
:10084000BFCF80919000806280939000D0939B00F6
:10085000C0939A00B5CF80919000886080939000FB
:10086000D0939D00C0939C00ABCF8091A000806886
:100870008093A0008091A0008F7B8093A000D093F4
:10088000A900C093A8009CCF8091A00080628093B3
:10089000A000D093AB00C093AA0092CF8091A0009B
:1008A00088608093A000D093AD00C093AC0088CF47
:1008B00080912001806880932001D0932901C0930A
:1008C00028017ECF80912001806280932001D09307
:1008D0002B01C0932A0174CF8091200188608093FE
:1008E0002001D0932D01C0932C016ACFC038D105CF
:1008F0000CF03ECF34CF3FB7F894809184029091B2
:100900008502A0918602B091870226B5A89B05C0FA
:100910002F3F19F00196A11DB11D3FBFBA2FA92F7E
:10092000982F8827BC01CD01620F711D811D911D7B
:1009300042E0660F771F881F991F4A95D1F70895E7
:100940008F929F92AF92BF92CF92DF92EF92FF92DF
:100950004B015C01D0DF6B017C01CDDF6C197D099F
:100960008E099F09683E734081059105B0F321E02F
:10097000821A9108A108B10888EEC80E83E0D81E3B
:10098000E11CF11C81149104A104B10431F7FF9022
:10099000EF90DF90CF90BF90AF909F908F90089591
:1009A0000895DC01ED91FC910190F081E02D199406
:1009B000EF92FF920F931F93CF93DF937B018A01F6
:1009C000CBE4D4E0A981BA81988121E020937E0311
:1009D0009093A00310927F031092A10394E0899F4B
:1009E000B00111246A5F7F4FED91FC911197019046
:1009F000F081E02DCD011995B70189819A81D1DF70
:100A000070E060E089819A81CCDFB80189819A81A8
:100A1000C8DF612F70E089819A81C3DF81E0DF91B7
:100A2000CF911F910F91FF90EF9012CC85ED8093A5
:100A3000BC008091BC0084FDFCCF10927D03089522
:100A400020916002260F3327331F21323105ECF449
:100A500020917D03FC0190E080E0243069F082E089
:100A60000895A09160022191AC01405C5D4FA40FFC
:100A7000B52FB11D2C930196861798F380916002D3
:100A8000680F6093600280E0089581E00895089502
:100A9000E091AD028091AC02E81730F4F0E0E85745
:100AA000FD4F808190E008958FEF9FEF0895909122
:100AB000AD028091AC022FEF3FEF981748F4E92F79
:100AC000F0E0E857FD4F208130E09F5F9093AD024A
:100AD000C90108958091AC029091AD02891B990BD8
:100AE0000895CF92DF92EF92FF920F931F93CF93CF
:100AF000DF937C01CB018A0120917E03222389F0C0
:100B0000EB016B01C40ED51ECC15DD0561F06991BA
:100B1000D701ED91FC910190F081E02DC70119956D
:100B2000F3CF642F8DDFC801DF91CF911F910F911B
:100B3000FF90EF90DF90CF900895CF93DF931F92B7
:100B4000CDB7DEB7698320917E032223F9F020918F
:100B5000A103203258F021E030E0FC0133832283EE
:100B600090E080E00F90DF91CF91089580917F0316
:100B7000E82FF0E0E058FC4F998190838F5F8093DD
:100B80007F038093A10381E090E0ECCF61E0CE0190
:100B9000019656DFF8CF90E080E008958091000242
:100BA000882309F461C088E39FEFAFEFBFEF809324
:100BB000290390932A03A0932B03B0932C038093D3
:100BC0002D0390932E03A0932F03B09330038093B3
:100BD000310390933203A0933303B0933403809393
:100BE000350390933603A0933703B0933803809373
:100BF000390390933A03A0933B03B0933C0388ECF2
:100C000090E0A0E0B0E080933D0390933E03A0937A
:100C10003F03B09340038093410390934203A0931A
:100C20004303B09344038093450390934603A093FA
:100C30004703B09348038093490390934A03A093DA
:100C40004B03B0934C0380934D0390934E03A093BA
:100C50004F03B09350038AE090E090935203809347
:100C60005103109200020895E9E2F3E083E0E135D8
:100C7000F80729F01192119211921192F7CF8AE0A0
:100C800090E0909352038093510381E0809300029F
:100C9000089580910D0390910E03A0910F03B091E0
:100CA0001003039B0CC00197A109B10980930D03A8
:100CB00090930E03A0930F03B09310030895019631
:100CC000A11DB11DF3CF8091090390910A03A0915A
:100CD0000B03B0910C03029B0CC00197A109B10951
:100CE0008093090390930A03A0930B03B0930C0322
:100CF00008950196A11DB11DF3CF80910503909138
:100D00000603A0910703B0910803019B0CC0019753
:100D1000A109B1098093050390930603A0930703EB
:100D2000B093080308950196A11DB11DF3CF8091E2
:100D3000010390910203A0910303B0910403009B6F
:100D40000CC00197A109B10980930103909302039C
:100D5000A0930303B093040308950196A11DB11D50
:100D6000F3CF1F920F920FB60F9211240BB60F9272
:100D70002F933F934F935F936F937F938F939F93A3
:100D8000AF93BF93EF93FF9382EA93E065DBFF910C
:100D9000EF91BF91AF919F918F917F916F915F91F3
:100DA0004F913F912F910F900BBE0F900FBE0F9060
:100DB0001F9018951F920F920FB60F9211240BB629
:100DC0000F922F938F939F93EF93FF93E091B20332
:100DD000F091B3038081E091B803F091B90382FDF3
:100DE0001DC090818091BB038F5F8F732091BC03E6
:100DF000821741F0E091BB03F0E0EE55FC4F958F78
:100E00008093BB03FF91EF919F918F912F910F9052
:100E10000BBE0F900FBE0F901F9018958081F2CFE0
:100E20001F920F920FB60F9211242F933F938F931F
:100E30009F93AF93BF938091C1029091C202A09102
:100E4000C302B091C4023091830223E0230F2D37F7
:100E500058F50196A11DB11D209383028093C10214
:100E60009093C202A093C302B093C4028091840203
:100E700090918502A0918602B09187020196A11DF2
:100E8000B11D8093840290938502A0938602B09353
:100E90008702BF91AF919F918F913F912F910F90BA
:100EA0000FBE0F901F90189526E8230F0296A11DE4
:100EB000B11DD2CF1F920F920FB60F9211240BB615
:100EC0000F922F933F934F935F936F937F938F93E3
:100ED0009F93AF93BF93EF93FF93E0910F02F09135
:100EE00010021995FF91EF91BF91AF919F918F9152
:100EF0007F916F915F914F913F912F910F900BBE1A
:100F00000F900FBE0F901F9018951F920F920FB663
:100F10000F9211240BB60F922F933F934F935F9331
:100F20006F937F938F939F93AF93BF93EF93FF93B1
:100F3000E0910D02F0910E021995FF91EF91BF9192
:100F4000AF919F918F917F916F915F914F913F9161
:100F50002F910F900BBE0F900FBE0F901F90189502
:100F60001F920F920FB60F9211240BB60F922F9370
:100F70003F934F935F936F937F938F939F93AF9321
:100F8000BF93EF93FF93E0910302F0910402199550
:100F9000FF91EF91BF91AF919F918F917F916F9151
:100FA0005F914F913F912F910F900BBE0F900FBE0D
:100FB0000F901F9018951F920F920FB60F92112449
:100FC0000BB60F922F933F934F935F936F937F9343
:100FD0008F939F93AF93BF93EF93FF93E0910102A1
:100FE000F09102021995FF91EF91BF91AF919F91FE
:100FF0008F917F916F915F914F913F912F910F90C2
:101000000BBE0F900FBE0F901F9018951F920F925E
:101010000FB60F9211240BB60F922F933F934F935D
:101020005F936F937F938F939F93AF93BF93EF9350
:10103000FF93E0910B02F0910C021995FF91EF9153
:10104000BF91AF919F918F917F916F915F914F91E0
:101050003F912F910F900BBE0F900FBE0F901F90DE
:1010600018951F920F920FB60F9211240BB60F9284
:101070002F933F934F935F936F937F938F939F93A0
:10108000AF93BF93EF93FF93E0910902F0910A02AF
:101090001995FF91EF91BF91AF919F918F917F91A2
:1010A0006F915F914F913F912F910F900BBE0F90D9
:1010B0000FBE0F901F9018951F920F920FB60F92B0
:1010C00011240BB60F922F933F934F935F936F931F
:1010D0007F938F939F93AF93BF93EF93FF93E09191
:1010E0000702F09108021995FF91EF91BF91AF911E
:1010F0009F918F917F916F915F914F913F912F9130
:101100000F900BBE0F900FBE0F901F9018951F925F
:101110000F920FB60F9211240BB60F922F933F939D
:101120004F935F936F937F938F939F93AF93BF93EF
:10113000EF93FF93E0910502F09106021995FF915C
:10114000EF91BF91AF919F918F917F916F915F913F
:101150004F913F912F910F900BBE0F900FBE0F90AC
:101160001F9018951F920F920FB60F9211240BB675
:101170000F922F933F934F935F936F937F938F9330
:101180009F93AF93BF93EF93FF938091B900887FB4
:10119000803609F44CC008F03FC0883209F4A8C07A
:1011A00028F5803109F49CC0C8F4882309F4FAC0FA
:1011B000883009F495C0FF91EF91BF91AF919F9155
:1011C0008F917F916F915F914F913F912F910F90F0
:1011D0000BBE0F900FBE0F901F901895883109F429
:1011E00087C0803241F780937B0314C0803409F4B8
:1011F0009CC040F48033B9F38833E9F680937B03D5
:1012000085ECAFC0803509F484C0883509F495C0F9
:10121000883489F60BDCCFCF883909F48CC038F5D7
:10122000883729F050F4883611F0803721F683E0B2
:1012300080937D031092820257C0883809F47BC0E6
:10124000803919F0803809F0B6CF8091820280325F
:1012500008F071C0E091820281E08E0F80938202DB
:101260008091BB00F0E0EE59FD4F80833DC0803B94
:1012700039F0E0F4803A09F479C0883A09F09BCF5C
:1012800084E080937D031092610210926002E091ED
:10129000AA02F091AB0219958091600281110FC0F2
:1012A00081E0809360021092400209C0803C09F402
:1012B000A7CF883C09F4A4CF883B09F07CCFE0910C
:1012C000610281E08E0F80936102F0E0E05CFD4FEF
:1012D00080818093BB00909161028091600229C05F
:1012E000809158038093BB0085EC8093BC0063CF52
:1012F00090917A0380917903981758F5E0917A03D9
:1013000081E08E0F80937A03F0E0E75AFC4F8081F2
:10131000E9CFE0917A0381E08E0F80937A03809188
:10132000BB00F0E0E75AFC4F808390917A038091F4
:1013300079039817C8F285E8D8CFE0917A0381E065
:101340008E0F80937A038091BB00F0E0E75AFC4F48
:10135000808380917C0381115DCF81E0809357036E
:1013600084EA8093BC0010927D0325CF85EC8093A6
:10137000BC0010927D0380918202803230F4E091B3
:101380008202F0E0EE59FD4F10826091820270E01F
:10139000E091A802F091A90282E692E019951092DC
:1013A000820209CF10927B0335CF1F920F920FB6A6
:1013B0000F9211240BB60F922F933F934F935F938D
:1013C0006F937F938F939F93AF93BF93EF93FF930D
:1013D0008091B4029091B5028093B2008091B702DF
:1013E0009091B802A091B902B091BA020196A11DE4
:1013F000B11D8093B7029093B802A093B902B09345
:10140000BA028091B7029091B802A091B902B0914E
:10141000BA024091B0025091B1026091B202709153
:10142000B30284179507A607B70710F18091B6029B
:1014300081111EC081E08093B6028091B702909125
:10144000B802A091B902B091BA02841B950BA60B09
:10145000B70B8093B7029093B802A093B902B093F0
:10146000BA02E091AE02F091AF0219951092B60265
:10147000FF91EF91BF91AF919F918F917F916F916C
:101480005F914F913F912F910F900BBE0F900FBE28
:101490000F901F9018951F920F920FB60F92112464
:1014A0002F933F934F935F936F938F939F93AF933C
:1014B000BF93609106018091BB029091BC029C0198
:1014C0002170332720953095462F417050E024231A
:1014D0003523232B71F18091210390912203A09158
:1014E0002303B0912403789B20C00197A109B1097F
:1014F0008093210390932203A0932303B0932403AA
:101500008091060190E09093BC028093BB02BF9152
:10151000AF919F918F916F915F914F913F912F91DB
:101520000F900FBE0F901F9018950196A11DB11D31
:10153000DFCF2091060182709927809590952270C7
:1015400030E082239323892BD9F280912503909157
:101550002603A0912703B0912803799B0CC0019723
:10156000A109B1098093250390932603A093270333
:10157000B0932803C5CF0196A11DB11DF3CF1F92D3
:101580000F920FB60F9211242F933F934F935F93B7
:101590006F938F939F93AF93BF936091030180915B
:1015A000BD029091BE029C01217033272095309599
:1015B000462F417050E024233523232B71F1809175
:1015C000190390911A03A0911B03B0911C03329B45
:1015D00020C00197A109B1098093190390931A03C0
:1015E000A0931B03B0931C038091030190E09093A0
:1015F000BE028093BD02BF91AF919F918F916F9179
:101600005F914F913F912F910F900FBE0F901F90C0
:1016100018950196A11DB11DDFCF209103018270A5
:10162000992780959095227030E082239323892B0F
:10163000D9F280911D0390911E03A0911F03B091D8
:101640002003339B0CC00197A109B10980931D03AE
:1016500090931E03A0931F03B0932003C5CF019660
:10166000A11DB11DF3CF1F920F920FB60F9211243F
:101670002F933F934F935F938F939F93AF93BF931A
:1016800043B18091BF029091C0029C012071332729
:1016900020953095407150E024233523232B61F1B0
:1016A0008091110390911203A0911303B091140340
:1016B000309B1EC00197A109B1098093110390933B
:1016C0001203A0931303B093140383B190E090939B
:1016D000C0028093BF02BF91AF919F918F915F91A4
:1016E0004F913F912F910F900FBE0F901F90189523
:1016F0000196A11DB11DE1CF23B18072992780957C
:101700009095207230E082239323892BF1F280910F
:10171000150390911603A0911703B0911803319B04
:101720000CC00197A109B10980931503909316038A
:10173000A0931703B0931803C8CF0196A11DB11D44
:10174000F3CFE2EAF3E01382128288EE93E0A0E0A6
:10175000B0E084839583A683B7832DE132E03183A3
:10176000208325EC30E03587248724EC30E0378770
:10177000268720EC30E0318B208B21EC30E0338B5E
:10178000228B22EC30E0358B248B26EC30E0378B3B
:10179000268B118E128E138E148EEFE3F4E01382DB
:1017A000128284839583A683B7838FE292E091832C
:1017B0008083ABE4B4E080E48C931296FC93EE93C8
:1017C00011970895CF93DF9300D000D0CDB7DEB747
:1017D000789484B5826084BD84B5816084BD85B50C
:1017E000826085BD85B5816085BD80916E00816018
:1017F00080936E00109281008091810082608093BE
:1018000081008091810081608093810080918000BF
:101810008160809380008091B10084608093B100EA
:101820008091B00081608093B000809191008260CF
:1018300080939100809191008160809391008091CC
:1018400090008160809390008091A10082608093DD
:10185000A1008091A10081608093A1008091A000EF
:1018600081608093A000809121018260809321019A
:10187000809121018160809321018091200181600C
:101880008093200180917A00846080937A00809117
:101890007A00826080937A0080917A0081608093E0
:1018A0007A0080917A00806880937A001092C1005B
:1018B0008091680087608093680090E390936B004C
:1018C00086E080936C0083E080936D0011B817B8B8
:1018D00010BA2CE02BB91DB89EB92EB1206C2EB9D0
:1018E00095B980930501809308019FE092B998B95A
:1018F00081BB789483B1837090E09093C002809311
:10190000BF0280910301867090E09093BE028093A5
:10191000BD0280910601837090E09093BC02809399
:10192000BB0284E08093D50285E08093D60287E0F5
:101930008093D70288E08093D80288E090E090936B
:1019400052038093510320915103309152033A8303
:1019500029832A303105C4F48901000F111F0B536C
:101960001D4F61E0D8018C910E94750361E0F80180
:1019700081810E94750329813A812F5F3F4F309307
:10198000520320935103DFCF109252031092510360
:1019900040915103509152035A8349834430510579
:1019A000B4F4FA01EE0FFF1FEF5EFD4F108160E00F
:1019B000812F0E94750361E0812F0E94E9028981D5
:1019C0009A8101969093520380935103E1CF87E966
:1019D00096E090930A0280930902809169008063E7
:1019E00080936900EA9A8DE796E090930C028093C9
:1019F0000B0280916900806C80936900EB9A83E60A
:101A000096E0909302028093010280916A008360C5
:101A100080936A00EC9A89E496E0909304028093A4
:101A2000030280916A008C6080936A00ED9A8CEDCD
:101A300091E090930E0280930D0280916A008F7C5A
:101A4000806280936A00EE9A80EE91E0909310029B
:101A500080930F0280916A008F73806880936A0080
:101A6000EF9A1092AD021092AC0210927F03109286
:101A7000A10310927D0381E080937C0310925703B1
:101A800061E084E10E94E90261E085E10E94E902EF
:101A90008091B9008E7F8093B9008091B9008D7FCD
:101AA0008093B90088E48093B80085E48093BC00FB
:101AB00084EE91E09093AB028093AA0285EE91E0D0
:101AC0009093A9028093A80260E880E00E948501BB
:101AD0006AE070E080E090E00E94A00460914E0413
:101AE00070914F04809150049091510476D320E07E
:101AF00030E04AE75AE4DDD220E030E040E05FE346
:101B000070D220E030E040E85FE36AD26B017C01F4
:101B100020E030E040E450E4C8D287FD1AC220E063
:101B200030E04FE753E4C701B60109D418160CF4AE
:101B300016C2C701B60125D36D8380914C049091E4
:101B40004D0420914B0431E030937E032093A00399
:101B500010927F031092A103DC01ED91FC910190A2
:101B6000F081E02D60E0199581E00E9428018091CC
:101B70004B0490917D039111FCCF91E090937D03F4
:101B800090937C032FEF20937B0310927A031092A3
:101B900079039093580390915803880F892B809371
:101BA000580380915703813009F0E0C11092570328
:101BB000809158038093BB008091BC0083FDF8CFD7
:101BC00085EC8093BC0080917D038130E1F38091AE
:101BD0007A0391E0811102C090917A03A9E5B3E004
:101BE000E8E8F2E080E08913C3C11092AD0280936F
:101BF000AC0280914C0490914D04DC01ED91FC917C
:101C00000284F385E02D19958983682F6F766061D2
:101C100080E00E9485016D818EEF0E9485016981BF
:101C200080E00E94850165E070E080E090E00E9425
:101C3000A0046981606A80E00E94850180E498E7E1
:101C4000ADE7B1E080934E0490934F04A09350040D
:101C5000B09351048CE08093B80084E190E0A0E060
:101C6000B0E08093290390932A03A0932B03B093B1
:101C70002C03E091B203F091B30382E08083E09102
:101C8000AE03F091AF031082E091B003F091B10385
:101C90008FEC80831092BA03E091B603F091B70302
:101CA00086E08083E091B403F091B5038081806188
:101CB0008083E091B403F091B503808188608083D4
:101CC000E091B403F091B503808180688083E09156
:101CD000B403F091B50380818F7D808380ED97E020
:101CE000A0E0B0E08093B0029093B102A093B20262
:101CF000B093B3028EEC95E09093AF028093AE0266
:101D0000809170008E7F809370008091B0008C7FF6
:101D10008093B0008091B100877F8093B100809163
:101D2000B6008F7D8093B600809170008D7F809388
:101D300070008091B10084608093B1008091B10007
:101D40008C7F8093B10086E090E09093B502809301
:101D5000B4021092B7021092B8021092B902109217
:101D6000BA021092B6028091B4029091B5028093AB
:101D7000B200809170008160809370008FB7F894FA
:101D80008090C1029090C202A090C302B090C402A1
:101D90008FBF8091530390915403A0915503B0914C
:101DA0005603881A990AAA0ABB0A2FB7F894809199
:101DB000C1029091C202A091C302B091C4022FBF90
:101DC0008093530390935403A0935503B093560309
:101DD0001092520310925103BFEF8B1A9B0AAB0A69
:101DE000BB0AE0915103F0915203FE83ED83EA3088
:101DF000F1050CF0F2C08F01000F111F000F111F31
:101E0000D801A75DBC4FF801EF5FFC4F4D905D908E
:101E10006D907C9080819181A281B381481A590A8A
:101E20006A0A7B0A07521D4FD801CD90DD90ED90D4
:101E3000FC90C40CD51CE61CF71CC701B60124E1BC
:101E400030E040E050E08ED2CA01B901A501940112
:101E50007AD269837A838B839C83A4E6B0E0A30162
:101E60009201A4D229813A814B815C81260F371FD0
:101E7000481F591FDA01C9013DE2C31631E0D306FC
:101E8000E104F10434F07CE2C72EDD24D394E12C8C
:101E9000F12C44EDC4164EEFD4064FEFE406F406E1
:101EA0003CF464EDC62E6EEFD62EEE24EA94FE2CA2
:101EB000F801C082D182E282F3826C017D0181153A
:101EC000F0E19F07A105B10534F0CC24CA945FE08E
:101ED000D52EE12CF12C21E0C21620EFD2062FEFF7
:101EE000E206F2063CF4CC24C39440EFD42EEE2458
:101EF000EA94FE2CF7FE08C0F094E094D094C094CD
:101F0000C11CD11CE11CF11C4D815E814830510582
:101F1000F4F5440F49834F5F4D83181619061A06CE
:101F20001B0654F5A60161E070E089810E94D80487
:101F300040E050E170E060E08D810E94D804809123
:101F40005103909152030196909352038093510351
:101F500048CFC12CD12CA0E4EA2EFE2CEACDC12C16
:101F6000D12CFFE7EF2EF3E4FF2EE3CD85EE29CE53
:101F70002D9121938F5F37CE40E050E170E060E01B
:101F800089810E94D804A60161E070E0D5CFED817F
:101F9000FE81EE0FFF1FEB53FD4F208134E0F594DF
:101FA000E794D794C7943A95D1F7F181F98318163D
:101FB00019061A061B0654F4B601822F0E94A603C6
:101FC00070E060E089810E94A603B9CF70E060E014
:101FD000822F0E94A603B601F5CF0E94B902CECE91
:101FE0005058BB27AA270ED070C161D130F066D1FE
:101FF00020F031F49F3F11F41EF456C10EF4E09529
:10200000E7FB4CC1E92F72D180F3BA17620773075F
:102010008407950718F071F49EF58AC10EF4E095D7
:102020000B2EBA2FA02D0B01B90190010C01CA0192
:10203000A0011124FF27591B99F0593F50F4503E3D
:1020400068F11A16F040A22F232F342F4427585F2F
:10205000F3CF469537952795A795F0405395C9F747
:102060007EF41F16BA0B620B730B840BBAF09150FF
:10207000A1F0FF0FBB1F661F771F881FC2F70EC09E
:10208000BA0F621F731F841F48F487957795679571
:10209000B795F7959E3F08F0B3CF9395880F08F05A
:1020A0009927EE0F979587950895D4D008F481E08D
:1020B00008950CD00AC102D140F0F9D030F021F4DB
:1020C0005F3F19F0EBC0511134C1EEC00FD198F34E
:1020D0009923C9F35523B1F3951B550BBB27AA27A9
:1020E00062177307840738F09F5F5F4F220F331F1B
:1020F000441FAA1FA9F333D00E2E3AF0E0E830D0E7
:1021000091505040E695001CCAF729D0FE2F27D0E9
:10211000660F771F881FBB1F261737074807AB07B7
:10212000B0E809F0BB0B802DBF01FF2793585F4F2C
:102130002AF09E3F510568F0B1C0FBC05F3FECF351
:10214000983EDCF3869577956795B795F7959F5FF1
:10215000C9F7880F911D9695879597F90895E1E045
:10216000660F771F881FBB1F621773078407BA07A4
:1021700020F0621B730B840BBA0BEE1F88F7E095FF
:102180000895BCD088F09F5790F0B92F9927B75188
:10219000A0F0D1F0660F771F881F991F1AF0BA952B
:1021A000C9F712C0B13081F0C3D0B1E00895C0C00A
:1021B000672F782F8827B85F39F0B93FCCF3869521
:1021C00077956795B395D9F73EF49095809570957E
:1021D00061957F4F8F4F9F4F0895E89409C097FBFB
:1021E0003EF490958095709561957F4F8F4F9F4FEE
:1021F0009923A9F0F92F96E9BB279395F695879532
:1022000077956795B795F111F8CFFAF4BB0F11F4F4
:1022100060FF1BC06F5F7F4F8F4F9F4F16C088239B
:1022200011F096E911C0772321F09EE8872F762FD1
:1022300005C0662371F096E8862F70E060E02AF012
:102240009A95660F771F881FDAF7880F96958795FE
:1022500097F90895990F0008550FAA0BE0E8FEEFD3
:1022600016161706E807F907C0F012161306E4075A
:10227000F50798F0621B730B840B950B39F40A2653
:1022800061F0232B242B252B21F408950A2609F431
:10229000A140A6958FEF811D811D089597F99F6735
:1022A00080E870E060E008959FEF80EC08950024DE
:1022B0000A941616170618060906089500240A94AB
:1022C00012161306140605060895092E0394000C31
:1022D00011F4882352F0BB0F40F4BF2B11F460FFC0
:1022E00004C06F5F7F4F8F4F9F4F089557FD9058E9
:1022F000440F551F59F05F3F71F04795880F97FBCA
:10230000991F61F09F3F79F0879508951216130683
:102310001406551FF2CF4695F1DF08C016161706B2
:102320001806991FF1CF86957105610508940895E7
:10233000E894BB2766277727CB0197F908958ADFB2
:1023400008F48FEF0895DB018F939F932FD0BF91F7
:10235000AF91A29F800D911DA39F900DB29F900DF4
:1023600011240895052E97FB16F400940FD057FD05
:1023700005D026D007FC02D046F408C05095409501
:10238000309521953F4F4F4F5F4F08959095809521
:10239000709561957F4F8F4F9F4F0895EE0FFF1FF0
:1023A000881F8BBF0790F691E02D19942BD0A59F25
:1023B000900DB49F900DA49F800D911D1124089540
:1023C000A1E21A2EAA1BBB1BFD010DC0AA1FBB1F39
:1023D000EE1FFF1FA217B307E407F50720F0A21BAB
:1023E000B30BE40BF50B661F771F881F991F1A9418
:1023F00069F760957095809590959B01AC01BD0142
:10240000CF010895A29FB001B39FC001A39F700D9B
:10241000811D1124911DB29F700D811D1124911DEC
:062420000895F894FFCFBF
:1024260001D004D004D004D004D004D004D004D009
:10243600041300120002000300000000004E02AF69
:1024460001E6019A021702F5010902000000009D4B
:0E245600057105CB0547056A055705480500C9
:00000001FF
